{
  "contractName": "TrustMe",
  "abi": [
    {
      "anonymous": false,
      "inputs": [
        {
          "indexed": false,
          "internalType": "address",
          "name": "investor",
          "type": "address"
        },
        {
          "indexed": false,
          "internalType": "string",
          "name": "projectName",
          "type": "string"
        },
        {
          "indexed": false,
          "internalType": "uint256",
          "name": "amount",
          "type": "uint256"
        },
        {
          "indexed": false,
          "internalType": "uint256",
          "name": "stakeBuyed",
          "type": "uint256"
        }
      ],
      "name": "investment",
      "type": "event"
    },
    {
      "anonymous": false,
      "inputs": [
        {
          "indexed": false,
          "internalType": "string",
          "name": "name",
          "type": "string"
        },
        {
          "indexed": false,
          "internalType": "string",
          "name": "description",
          "type": "string"
        },
        {
          "indexed": false,
          "internalType": "uint256",
          "name": "stakeToSell",
          "type": "uint256"
        },
        {
          "indexed": false,
          "internalType": "uint256",
          "name": "projectValuation",
          "type": "uint256"
        },
        {
          "indexed": false,
          "internalType": "uint256",
          "name": "finishCriteria",
          "type": "uint256"
        }
      ],
      "name": "newProject",
      "type": "event"
    },
    {
      "anonymous": false,
      "inputs": [
        {
          "indexed": false,
          "internalType": "string",
          "name": "name",
          "type": "string"
        },
        {
          "indexed": false,
          "internalType": "uint256",
          "name": "balance",
          "type": "uint256"
        }
      ],
      "name": "projectWithdraw",
      "type": "event"
    },
    {
      "constant": false,
      "inputs": [
        {
          "internalType": "string",
          "name": "name",
          "type": "string"
        },
        {
          "internalType": "string",
          "name": "description",
          "type": "string"
        },
        {
          "internalType": "uint256",
          "name": "stakeToSell",
          "type": "uint256"
        },
        {
          "internalType": "uint256",
          "name": "projectValuation",
          "type": "uint256"
        },
        {
          "internalType": "uint256",
          "name": "finishCriteria",
          "type": "uint256"
        },
        {
          "internalType": "string",
          "name": "headerHash",
          "type": "string"
        }
      ],
      "name": "addProject",
      "outputs": [
        {
          "internalType": "string",
          "name": "message",
          "type": "string"
        }
      ],
      "payable": false,
      "stateMutability": "nonpayable",
      "type": "function"
    },
    {
      "constant": true,
      "inputs": [],
      "name": "getProjectsCount",
      "outputs": [
        {
          "internalType": "uint256",
          "name": "",
          "type": "uint256"
        }
      ],
      "payable": false,
      "stateMutability": "view",
      "type": "function"
    },
    {
      "constant": true,
      "inputs": [],
      "name": "getAddressProjectsIndexes",
      "outputs": [
        {
          "internalType": "uint256[]",
          "name": "",
          "type": "uint256[]"
        }
      ],
      "payable": false,
      "stateMutability": "view",
      "type": "function"
    },
    {
      "constant": true,
      "inputs": [
        {
          "internalType": "uint256",
          "name": "projectIndex",
          "type": "uint256"
        }
      ],
      "name": "getProject",
      "outputs": [
        {
          "internalType": "string",
          "name": "name",
          "type": "string"
        },
        {
          "internalType": "string",
          "name": "headerHash",
          "type": "string"
        },
        {
          "internalType": "string",
          "name": "description",
          "type": "string"
        },
        {
          "internalType": "uint256",
          "name": "stakeToSell",
          "type": "uint256"
        },
        {
          "internalType": "uint256",
          "name": "availableStake",
          "type": "uint256"
        },
        {
          "internalType": "uint256",
          "name": "projectValuation",
          "type": "uint256"
        },
        {
          "internalType": "uint256",
          "name": "finishCriteria",
          "type": "uint256"
        },
        {
          "internalType": "bool",
          "name": "availableToInvest",
          "type": "bool"
        },
        {
          "internalType": "address",
          "name": "owner",
          "type": "address"
        },
        {
          "internalType": "uint256",
          "name": "projectBalance",
          "type": "uint256"
        }
      ],
      "payable": false,
      "stateMutability": "view",
      "type": "function"
    },
    {
      "constant": false,
      "inputs": [
        {
          "internalType": "uint256",
          "name": "projectIndex",
          "type": "uint256"
        },
        {
          "internalType": "uint256",
          "name": "projectStakeVal",
          "type": "uint256"
        }
      ],
      "name": "investInProject",
      "outputs": [],
      "payable": true,
      "stateMutability": "payable",
      "type": "function"
    },
    {
      "constant": false,
      "inputs": [
        {
          "internalType": "uint256",
          "name": "projectIndex",
          "type": "uint256"
        }
      ],
      "name": "stopProjectInvestmentRound",
      "outputs": [
        {
          "internalType": "string",
          "name": "message",
          "type": "string"
        },
        {
          "internalType": "bool",
          "name": "success",
          "type": "bool"
        }
      ],
      "payable": false,
      "stateMutability": "nonpayable",
      "type": "function"
    },
    {
      "constant": false,
      "inputs": [
        {
          "internalType": "uint256",
          "name": "projectIndex",
          "type": "uint256"
        }
      ],
      "name": "withdrawProjectBalance",
      "outputs": [],
      "payable": true,
      "stateMutability": "payable",
      "type": "function"
    }
  ],
  "bytecode": "0x608060405234801561001057600080fd5b50611dfa806100206000396000f3fe6080604052600436106100705760003560e01c8063d49cb0241161004e578063d49cb024146103a6578063e4a8f18b146103d4578063e6587528146103ff578063f0f3f2c8146104be57610070565b8063336f56dc14610075578063564a120b146100ad578063863e85871461033a575b600080fd5b6100ab6004803603604081101561008b57600080fd5b8101908080359060200190929190803590602001909291905050506106ab565b005b3480156100b957600080fd5b506102bf600480360360c08110156100d057600080fd5b81019080803590602001906401000000008111156100ed57600080fd5b8201836020820111156100ff57600080fd5b8035906020019184600183028401116401000000008311171561012157600080fd5b91908080601f016020809104026020016040519081016040528093929190818152602001838380828437600081840152601f19601f8201169050808301925050505050505091929192908035906020019064010000000081111561018457600080fd5b82018360208201111561019657600080fd5b803590602001918460018302840111640100000000831117156101b857600080fd5b91908080601f016020809104026020016040519081016040528093929190818152602001838380828437600081840152601f19601f8201169050808301925050505050505091929192908035906020019092919080359060200190929190803590602001909291908035906020019064010000000081111561023957600080fd5b82018360208201111561024b57600080fd5b8035906020019184600183028401116401000000008311171561026d57600080fd5b91908080601f016020809104026020016040519081016040528093929190818152602001838380828437600081840152601f19601f820116905080830192505050505050509192919290505050610a09565b6040518080602001828103825283818151815260200191508051906020019080838360005b838110156102ff5780820151818401526020810190506102e4565b50505050905090810190601f16801561032c5780820380516001836020036101000a031916815260200191505b509250505060405180910390f35b34801561034657600080fd5b5061034f610d87565b6040518080602001828103825283818151815260200191508051906020019060200280838360005b83811015610392578082015181840152602081019050610377565b505050509050019250505060405180910390f35b6103d2600480360360208110156103bc57600080fd5b8101908080359060200190929190505050610e1b565b005b3480156103e057600080fd5b506103e96114c4565b6040518082815260200191505060405180910390f35b34801561040b57600080fd5b506104386004803603602081101561042257600080fd5b81019080803590602001909291905050506114d1565b604051808060200183151515158152602001828103825284818151815260200191508051906020019080838360005b83811015610482578082015181840152602081019050610467565b50505050905090810190601f1680156104af5780820380516001836020036101000a031916815260200191505b50935050505060405180910390f35b3480156104ca57600080fd5b506104f7600480360360208110156104e157600080fd5b810190808035906020019092919050505061180e565b604051808060200180602001806020018b81526020018a8152602001898152602001888152602001871515151581526020018673ffffffffffffffffffffffffffffffffffffffff1673ffffffffffffffffffffffffffffffffffffffff16815260200185815260200184810384528e818151815260200191508051906020019080838360005b8381101561059957808201518184015260208101905061057e565b50505050905090810190601f1680156105c65780820380516001836020036101000a031916815260200191505b5084810383528d818151815260200191508051906020019080838360005b838110156105ff5780820151818401526020810190506105e4565b50505050905090810190601f16801561062c5780820380516001836020036101000a031916815260200191505b5084810382528c818151815260200191508051906020019080838360005b8381101561066557808201518184015260208101905061064a565b50505050905090810190601f1680156106925780820380516001836020036101000a031916815260200191505b509d505050505050505050505050505060405180910390f35b81610742816000803373ffffffffffffffffffffffffffffffffffffffff1673ffffffffffffffffffffffffffffffffffffffff16815260200190815260200160002080548060200260200160405190810160405280929190818152602001828054801561073857602002820191906000526020600020905b815481526020019060010190808311610724575b5050505050611b55565b15610798576040517f08c379a000000000000000000000000000000000000000000000000000000000815260040180806020018281038252603f815260200180611cf1603f913960400191505060405180910390fd5b82600181815481106107a657fe5b90600052602060002090600a020160070160009054906101000a900460ff1661081a576040517f08c379a0000000000000000000000000000000000000000000000000000000008152600401808060200182810382526024815260200180611d306024913960400191505060405180910390fd5b346001828154811061082857fe5b90600052602060002090600a0201600401541115610891576040517f08c379a000000000000000000000000000000000000000000000000000000000815260040180806020018281038252602b815260200180611d9b602b913960400191505060405180910390fd5b826001858154811061089f57fe5b90600052602060002090600a02016004016000828254039250508190555034600185815481106108cb57fe5b90600052602060002090600a0201600801600082825401925050819055507f2f0d96ec3f7b225801307bda93e683f05bde0cb351bb828056eaf295d963a697336001868154811061091857fe5b90600052602060002090600a02016000013486604051808573ffffffffffffffffffffffffffffffffffffffff1673ffffffffffffffffffffffffffffffffffffffff168152602001806020018481526020018381526020018281038252858181546001816001161561010002031660029004815260200191508054600181600116156101000203166002900480156109f25780601f106109c7576101008083540402835291602001916109f2565b820191906000526020600020905b8154815290600101906020018083116109d557829003601f168201915b50509550505050505060405180910390a150505050565b60606000803373ffffffffffffffffffffffffffffffffffffffff1673ffffffffffffffffffffffffffffffffffffffff168152602001908152602001600020600180549050908060018154018082558091505090600182039060005260206000200160009091929091909150555060016040518061016001604052808981526020018881526020018481526020018781526020018781526020018681526020018581526020016001151581526020013373ffffffffffffffffffffffffffffffffffffffff16815260200160008152602001600115158152509080600181540180825580915050906001820390600052602060002090600a0201600090919290919091506000820151816000019080519060200190610b2a929190611ba4565b506020820151816001019080519060200190610b47929190611ba4565b506040820151816002019080519060200190610b64929190611ba4565b50606082015181600301556080820151816004015560a0820151816005015560c0820151816006015560e08201518160070160006101000a81548160ff0219169083151502179055506101008201518160070160016101000a81548173ffffffffffffffffffffffffffffffffffffffff021916908373ffffffffffffffffffffffffffffffffffffffff16021790555061012082015181600801556101408201518160090160006101000a81548160ff0219169083151502179055505050507fa8db7167e92a793cb8876c1626b8d403b9e448931cacce2eca9977ff39a150a98787878787604051808060200180602001868152602001858152602001848152602001838103835288818151815260200191508051906020019080838360005b83811015610ca0578082015181840152602081019050610c85565b50505050905090810190601f168015610ccd5780820380516001836020036101000a031916815260200191505b50838103825287818151815260200191508051906020019080838360005b83811015610d06578082015181840152602081019050610ceb565b50505050905090810190601f168015610d335780820380516001836020036101000a031916815260200191505b5097505050505050505060405180910390a16040518060400160405280601a81526020017f5375636365737366756c6c792041646465642050726f6a65637400000000000081525090509695505050505050565b60606000803373ffffffffffffffffffffffffffffffffffffffff1673ffffffffffffffffffffffffffffffffffffffff168152602001908152602001600020805480602002602001604051908101604052809291908181526020018280548015610e1157602002820191906000526020600020905b815481526020019060010190808311610dfd575b5050505050905090565b80600060018281548110610e2b57fe5b90600052602060002090600a0201600801541415610e94576040517f08c379a0000000000000000000000000000000000000000000000000000000008152600401808060200182810382526022815260200180611d796022913960400191505060405180910390fd5b81606460018281548110610ea457fe5b90600052602060002090600a02016006015460018381548110610ec357fe5b90600052602060002090600a0201600301540281610edd57fe5b0460018281548110610eeb57fe5b90600052602060002090600a0201600801541015610f54576040517f08c379a0000000000000000000000000000000000000000000000000000000008152600401808060200182810382526033815260200180611cbe6033913960400191505060405180910390fd5b82610feb816000803373ffffffffffffffffffffffffffffffffffffffff1673ffffffffffffffffffffffffffffffffffffffff168152602001908152602001600020805480602002602001604051908101604052809291908181526020018280548015610fe157602002820191906000526020600020905b815481526020019060010190808311610fcd575b5050505050611b55565b611040576040517f08c379a0000000000000000000000000000000000000000000000000000000008152600401808060200182810382526025815260200180611d546025913960400191505060405180910390fd5b6001818154811061104d57fe5b90600052602060002090600a020160090160009054906101000a900460ff166110de576040517f08c379a000000000000000000000000000000000000000000000000000000000815260040180806020018281038252601b8152602001807f546869732050726f6a65637420646f6573206e6f74206578697374000000000081525060200191505060405180910390fd5b6110e6611c24565b600185815481106110f357fe5b90600052602060002090600a020160405180610160016040529081600082018054600181600116156101000203166002900480601f0160208091040260200160405190810160405280929190818152602001828054600181600116156101000203166002900480156111a65780601f1061117b576101008083540402835291602001916111a6565b820191906000526020600020905b81548152906001019060200180831161118957829003601f168201915b50505050508152602001600182018054600181600116156101000203166002900480601f0160208091040260200160405190810160405280929190818152602001828054600181600116156101000203166002900480156112485780601f1061121d57610100808354040283529160200191611248565b820191906000526020600020905b81548152906001019060200180831161122b57829003601f168201915b50505050508152602001600282018054600181600116156101000203166002900480601f0160208091040260200160405190810160405280929190818152602001828054600181600116156101000203166002900480156112ea5780601f106112bf576101008083540402835291602001916112ea565b820191906000526020600020905b8154815290600101906020018083116112cd57829003601f168201915b50505050508152602001600382015481526020016004820154815260200160058201548152602001600682015481526020016007820160009054906101000a900460ff161515151581526020016007820160019054906101000a900473ffffffffffffffffffffffffffffffffffffffff1673ffffffffffffffffffffffffffffffffffffffff1673ffffffffffffffffffffffffffffffffffffffff168152602001600882015481526020016009820160009054906101000a900460ff161515151581525050905080610100015173ffffffffffffffffffffffffffffffffffffffff166108fc8261012001519081150290604051600060405180830381858888f19350505050158015611403573d6000803e3d6000fd5b506000816101200181815250507f779bb8e27b6203f2cc7bc9ba164ca8802e346d24701c74407945c2baf040f76381600001518261012001516040518080602001838152602001828103825284818151815260200191508051906020019080838360005b83811015611482578082015181840152602081019050611467565b50505050905090810190601f1680156114af5780820380516001836020036101000a031916815260200191505b50935050505060405180910390a15050505050565b6000600180549050905090565b606060008261156c816000803373ffffffffffffffffffffffffffffffffffffffff1673ffffffffffffffffffffffffffffffffffffffff16815260200190815260200160002080548060200260200160405190810160405280929190818152602001828054801561156257602002820191906000526020600020905b81548152602001906001019080831161154e575b5050505050611b55565b6115c1576040517f08c379a0000000000000000000000000000000000000000000000000000000008152600401808060200182810382526025815260200180611d546025913960400191505060405180910390fd5b600181815481106115ce57fe5b90600052602060002090600a020160090160009054906101000a900460ff1661165f576040517f08c379a000000000000000000000000000000000000000000000000000000000815260040180806020018281038252601b8152602001807f546869732050726f6a65637420646f6573206e6f74206578697374000000000081525060200191505060405180910390fd5b8360646001828154811061166f57fe5b90600052602060002090600a0201600601546001838154811061168e57fe5b90600052602060002090600a02016003015402816116a857fe5b04600182815481106116b657fe5b90600052602060002090600a020160080154101561171f576040517f08c379a0000000000000000000000000000000000000000000000000000000008152600401808060200182810382526033815260200180611cbe6033913960400191505060405180910390fd5b6001858154811061172c57fe5b90600052602060002090600a020160070160009054906101000a900460ff16156117c95760006001868154811061175f57fe5b90600052602060002090600a020160070160006101000a81548160ff02191690831515021790555060016040518060400160405280601c81526020017f50726f6a656374207375636365737366756c6c792053746f70706564000000008152509093509350611807565b60006040518060400160405280601781526020017f50726f6a65637420616c72656164792053746f7070656400000000000000000081525090935093505b5050915091565b60608060606000806000806000806000611826611c24565b60018c8154811061183357fe5b90600052602060002090600a020160405180610160016040529081600082018054600181600116156101000203166002900480601f0160208091040260200160405190810160405280929190818152602001828054600181600116156101000203166002900480156118e65780601f106118bb576101008083540402835291602001916118e6565b820191906000526020600020905b8154815290600101906020018083116118c957829003601f168201915b50505050508152602001600182018054600181600116156101000203166002900480601f0160208091040260200160405190810160405280929190818152602001828054600181600116156101000203166002900480156119885780601f1061195d57610100808354040283529160200191611988565b820191906000526020600020905b81548152906001019060200180831161196b57829003601f168201915b50505050508152602001600282018054600181600116156101000203166002900480601f016020809104026020016040519081016040528092919081815260200182805460018160011615610100020316600290048015611a2a5780601f106119ff57610100808354040283529160200191611a2a565b820191906000526020600020905b815481529060010190602001808311611a0d57829003601f168201915b50505050508152602001600382015481526020016004820154815260200160058201548152602001600682015481526020016007820160009054906101000a900460ff161515151581526020016007820160019054906101000a900473ffffffffffffffffffffffffffffffffffffffff1673ffffffffffffffffffffffffffffffffffffffff1673ffffffffffffffffffffffffffffffffffffffff168152602001600882015481526020016009820160009054906101000a900460ff1615151515815250509050806000015181604001518260200151836060015184608001518560a001518660c001518760e001518861010001518961012001518999508898508797508191509a509a509a509a509a509a509a509a509a509a50509193959799509193959799565b600080600090505b8251811015611b985783838281518110611b7357fe5b60200260200101511415611b8b576001915050611b9e565b8080600101915050611b5d565b50600090505b92915050565b828054600181600116156101000203166002900490600052602060002090601f016020900481019282601f10611be557805160ff1916838001178555611c13565b82800160010185558215611c13579182015b82811115611c12578251825591602001919060010190611bf7565b5b509050611c209190611c98565b5090565b60405180610160016040528060608152602001606081526020016060815260200160008152602001600081526020016000815260200160008152602001600015158152602001600073ffffffffffffffffffffffffffffffffffffffff168152602001600081526020016000151581525090565b611cba91905b80821115611cb6576000816000905550600101611c9e565b5090565b9056fe5468652070726f6a65637420646f6573206e6f74206163636f6d706c697368207468652066696e69736820637269746572696154686520696e766573746f722063616e2774206265207468652073616d6520706572736f6e2077686f207075626c6973686564207468652070726f6a656374546869732070726f6a6563742069732073746f7070656420627920686973206f776e6572546869732050726f6a65637420646f6573206e6f742062656c6f6e677320746f20796f7521596f752068617665206e6f20666f756e647320696e20746861742070726f6a656374596f752063616e2774206275792061206869676865722076616c7565207468616e20617661696c61626c65a265627a7a7231582057d477b7027c61123e8164b4f5a7a35a84b86656553ed121bed53b8f31dcab4764736f6c634300050c0032",
  "source": "pragma solidity ^0.5.0;\r\n\r\ncontract TrustMe {\r\n  // TrustMe events\r\n  event newProject(string name, string description, uint stakeToSell, uint projectValuation, uint finishCriteria);\r\n  event investment(address investor, string projectName, uint amount, uint stakeBuyed);\r\n  event projectWithdraw(string name, uint balance);\r\n  // PROJECT STRUCTURE MODEL\r\n  struct Project {\r\n    string name;\r\n    string description;\r\n    string headerHash;\r\n    uint stakeToSell;\r\n    uint availableStake;\r\n    uint projectValuation;\r\n    uint finishCriteria;\r\n    bool availableToInvest;\r\n    address payable ownerAddress;\r\n    uint balance;\r\n    bool validProject;\r\n  }\r\n  mapping(address => uint[]) private projects; //projects storage\r\n  Project[] private projectsStorage; //projects order by address\r\n  // ask only for investor\r\n  modifier onlyInvestor(uint projectIndex) {\r\n    require(\r\n      !contains(projectIndex,projects[msg.sender]),\r\n      \"The investor can't be the same person who published the project\"\r\n    );\r\n    _;\r\n  }\r\n  // ask only for investor\r\n  modifier accomplishFinishCriteria(uint projectIndex) {\r\n    require(\r\n      projectsStorage[projectIndex].balance >= ((projectsStorage[projectIndex].stakeToSell * projectsStorage[projectIndex].finishCriteria) / 100),\r\n      \"The project does not accomplish the finish criteria\"\r\n    );\r\n    _;\r\n  }\r\n  // ask if the project is available to invest\r\n  modifier availableToBuy(uint projectIndex){\r\n    require(\r\n      projectsStorage[projectIndex].availableToInvest,\r\n      \"This project is stopped by his owner\"\r\n    );\r\n    require(\r\n      projectsStorage[projectIndex].availableStake <= msg.value,\r\n      \"You can't buy a higher value than available\"\r\n    );\r\n    _;\r\n  }\r\n  // ask if the project has founds\r\n  modifier withFounds(uint projectIndex){\r\n    require(projectsStorage[projectIndex].balance != 0, 'You have no founds in that project');\r\n    _;\r\n  }\r\n  // ask if msg address has project\r\n  modifier entrepeurWithProjects(uint projectIndex){\r\n    require(contains(projectIndex,projects[msg.sender]),'This Project does not belongs to you!');\r\n    require(projectsStorage[projectIndex].validProject,'This Project does not exist');\r\n    _;\r\n  }\r\n  // check if elements exists in array\r\n  function contains(\r\n    uint element,\r\n    uint[] memory arrayToSearch\r\n  ) private pure returns(bool success) {\r\n    for(uint i = 0; i<arrayToSearch.length; i++) {\r\n      if(arrayToSearch[i] == element)return true;\r\n    }\r\n    return false;\r\n  }\r\n  // adding a new project\r\n  function addProject (\r\n    string memory name,\r\n    string memory description,\r\n    uint stakeToSell,\r\n    uint projectValuation,\r\n    uint finishCriteria,\r\n    string memory headerHash\r\n  ) public returns(\r\n    string memory message\r\n  ){\r\n    projects[msg.sender].push(projectsStorage.length);\r\n    projectsStorage.push(\r\n      Project({\r\n        name: name,\r\n        description: description,\r\n        stakeToSell: stakeToSell,\r\n        availableStake: stakeToSell,\r\n        projectValuation: projectValuation,\r\n        finishCriteria: finishCriteria,\r\n        headerHash: headerHash,\r\n        availableToInvest: true,\r\n        ownerAddress: msg.sender,\r\n        balance: 0,\r\n        validProject: true\r\n      })\r\n    );\r\n    emit newProject(name, description, stakeToSell, projectValuation, finishCriteria);\r\n    return(\"Successfully Added Project\");\r\n  }\r\n  // get all projects count\r\n  function getProjectsCount() public view returns (uint){\r\n    return projectsStorage.length;\r\n  }\r\n  // get all address projects count\r\n  function getAddressProjectsIndexes () public view returns (\r\n    uint[] memory\r\n  ) {\r\n    return projects[msg.sender];\r\n  }\r\n  // get specific project\r\n  function getProject (\r\n    uint projectIndex\r\n  ) public view returns (\r\n    string memory name,\r\n    string memory headerHash,\r\n    string memory description,\r\n    uint stakeToSell,\r\n    uint availableStake,\r\n    uint projectValuation,\r\n    uint finishCriteria,\r\n    bool availableToInvest,\r\n    address owner,\r\n    uint projectBalance\r\n  ) {\r\n    Project memory projectToReturn = projectsStorage[projectIndex];\r\n    return (\r\n      projectToReturn.name,\r\n      projectToReturn.headerHash,\r\n      projectToReturn.description,\r\n      projectToReturn.stakeToSell,\r\n      projectToReturn.availableStake,\r\n      projectToReturn.projectValuation,\r\n      projectToReturn.finishCriteria,\r\n      projectToReturn.availableToInvest,\r\n      projectToReturn.ownerAddress,\r\n      projectToReturn.balance\r\n    );\r\n  }\r\n  // invest in project\r\n  function investInProject(\r\n    uint projectIndex,\r\n    uint projectStakeVal\r\n  ) public onlyInvestor(projectIndex) availableToBuy(projectIndex) payable {\r\n    projectsStorage[projectIndex].availableStake -= projectStakeVal;\r\n    projectsStorage[projectIndex].balance += msg.value;\r\n    emit investment(msg.sender, projectsStorage[projectIndex].name, msg.value, projectStakeVal);\r\n  }\r\n  // stop project investment round\r\n  function stopProjectInvestmentRound(\r\n    uint projectIndex\r\n  ) public entrepeurWithProjects(projectIndex) accomplishFinishCriteria(projectIndex) returns (\r\n    string memory message,\r\n    bool success\r\n  ) {\r\n    if (projectsStorage[projectIndex].availableToInvest) {\r\n      projectsStorage[projectIndex].availableToInvest = false;\r\n      return ('Project successfully Stopped', true);\r\n    } else {\r\n      return ('Project already Stopped', false);\r\n    }\r\n  }\r\n  // withdraw project balance\r\n  function withdrawProjectBalance(\r\n    uint projectIndex\r\n  ) public withFounds(projectIndex) accomplishFinishCriteria(projectIndex) entrepeurWithProjects(projectIndex) payable{\r\n    Project memory projectToWithdraw = projectsStorage[projectIndex];\r\n    projectToWithdraw.ownerAddress.transfer(projectToWithdraw.balance);\r\n    projectToWithdraw.balance = 0;\r\n    emit projectWithdraw(projectToWithdraw.name, projectToWithdraw.balance);\r\n  }\r\n}",
  "sourcePath": "/mnt/c/Users/OXOFT/Documents/CURSOS/TrustMe/contracts/TrustMe.sol",
  "compiler": {
    "name": "solc",
    "version": "0.5.12+commit.7709ece9.Emscripten.clang"
  },
  "schemaVersion": "3.0.19",
  "updatedAt": "2019-12-04T23:21:45.391Z",
  "networkType": "ethereum",
  "devdoc": {
    "methods": {}
  },
  "userdoc": {
    "methods": {}
  }
}