{
  "contractName": "TrustMe",
  "abi": [
    {
      "anonymous": false,
      "inputs": [
        {
          "indexed": false,
          "internalType": "address",
          "name": "investor",
          "type": "address"
        },
        {
          "indexed": false,
          "internalType": "string",
          "name": "projectName",
          "type": "string"
        },
        {
          "indexed": false,
          "internalType": "uint256",
          "name": "amount",
          "type": "uint256"
        },
        {
          "indexed": false,
          "internalType": "uint256",
          "name": "stakeBuyed",
          "type": "uint256"
        }
      ],
      "name": "investment",
      "type": "event"
    },
    {
      "anonymous": false,
      "inputs": [
        {
          "indexed": false,
          "internalType": "string",
          "name": "name",
          "type": "string"
        },
        {
          "indexed": false,
          "internalType": "string",
          "name": "description",
          "type": "string"
        },
        {
          "indexed": false,
          "internalType": "uint256",
          "name": "stakeToSell",
          "type": "uint256"
        },
        {
          "indexed": false,
          "internalType": "uint256",
          "name": "projectValuation",
          "type": "uint256"
        },
        {
          "indexed": false,
          "internalType": "uint256",
          "name": "finishCriteria",
          "type": "uint256"
        }
      ],
      "name": "newProject",
      "type": "event"
    },
    {
      "anonymous": false,
      "inputs": [
        {
          "indexed": false,
          "internalType": "string",
          "name": "name",
          "type": "string"
        },
        {
          "indexed": false,
          "internalType": "uint256",
          "name": "balance",
          "type": "uint256"
        }
      ],
      "name": "projectWithdraw",
      "type": "event"
    },
    {
      "constant": false,
      "inputs": [
        {
          "internalType": "string",
          "name": "name",
          "type": "string"
        },
        {
          "internalType": "string",
          "name": "description",
          "type": "string"
        },
        {
          "internalType": "uint256",
          "name": "stakeToSell",
          "type": "uint256"
        },
        {
          "internalType": "uint256",
          "name": "projectValuation",
          "type": "uint256"
        },
        {
          "internalType": "uint256",
          "name": "finishCriteria",
          "type": "uint256"
        }
      ],
      "name": "addProject",
      "outputs": [
        {
          "internalType": "string",
          "name": "message",
          "type": "string"
        }
      ],
      "payable": false,
      "stateMutability": "nonpayable",
      "type": "function"
    },
    {
      "constant": true,
      "inputs": [],
      "name": "getProjectsCount",
      "outputs": [
        {
          "internalType": "uint256",
          "name": "",
          "type": "uint256"
        }
      ],
      "payable": false,
      "stateMutability": "view",
      "type": "function"
    },
    {
      "constant": true,
      "inputs": [
        {
          "internalType": "uint256",
          "name": "projectIndex",
          "type": "uint256"
        }
      ],
      "name": "getAddressProjectsCount",
      "outputs": [
        {
          "internalType": "uint256",
          "name": "addressProjectsLength",
          "type": "uint256"
        }
      ],
      "payable": false,
      "stateMutability": "view",
      "type": "function"
    },
    {
      "constant": true,
      "inputs": [
        {
          "internalType": "uint256",
          "name": "projectAddressIndex",
          "type": "uint256"
        },
        {
          "internalType": "uint256",
          "name": "projectIndex",
          "type": "uint256"
        }
      ],
      "name": "getProject",
      "outputs": [
        {
          "internalType": "string",
          "name": "name",
          "type": "string"
        },
        {
          "internalType": "string",
          "name": "description",
          "type": "string"
        },
        {
          "internalType": "uint256",
          "name": "stakeToSell",
          "type": "uint256"
        },
        {
          "internalType": "uint256",
          "name": "availableStake",
          "type": "uint256"
        },
        {
          "internalType": "uint256",
          "name": "projectValuation",
          "type": "uint256"
        },
        {
          "internalType": "uint256",
          "name": "finishCriteria",
          "type": "uint256"
        }
      ],
      "payable": false,
      "stateMutability": "view",
      "type": "function"
    },
    {
      "constant": true,
      "inputs": [
        {
          "internalType": "uint256",
          "name": "projectIndex",
          "type": "uint256"
        }
      ],
      "name": "getProjectBalance",
      "outputs": [
        {
          "internalType": "uint256",
          "name": "balance",
          "type": "uint256"
        }
      ],
      "payable": false,
      "stateMutability": "view",
      "type": "function"
    },
    {
      "constant": false,
      "inputs": [
        {
          "internalType": "uint256",
          "name": "projectAddressIndex",
          "type": "uint256"
        },
        {
          "internalType": "uint256",
          "name": "projectIndex",
          "type": "uint256"
        },
        {
          "internalType": "uint256",
          "name": "projectStakeVal",
          "type": "uint256"
        }
      ],
      "name": "investInProject",
      "outputs": [
        {
          "internalType": "string",
          "name": "message",
          "type": "string"
        }
      ],
      "payable": true,
      "stateMutability": "payable",
      "type": "function"
    },
    {
      "constant": false,
      "inputs": [
        {
          "internalType": "uint256",
          "name": "projectIndex",
          "type": "uint256"
        }
      ],
      "name": "stopProjectInvestmentRound",
      "outputs": [
        {
          "internalType": "string",
          "name": "message",
          "type": "string"
        },
        {
          "internalType": "bool",
          "name": "success",
          "type": "bool"
        }
      ],
      "payable": false,
      "stateMutability": "nonpayable",
      "type": "function"
    },
    {
      "constant": false,
      "inputs": [
        {
          "internalType": "uint256",
          "name": "projectIndex",
          "type": "uint256"
        }
      ],
      "name": "withdrawProjectBalance",
      "outputs": [
        {
          "internalType": "string",
          "name": "messsage",
          "type": "string"
        }
      ],
      "payable": true,
      "stateMutability": "payable",
      "type": "function"
    }
  ],
  "bytecode": "0x608060405234801561001057600080fd5b506121ad806100206000396000f3fe60806040526004361061007b5760003560e01c8063845d991b1161004e578063845d991b1461045a578063d49cb02414610515578063e4a8f18b146105bc578063e6587528146105e75761007b565b8063191eca4f1461008057806340c58b0d146100cf57806349df9464146102c55780637f90757d1461040b575b600080fd5b34801561008c57600080fd5b506100b9600480360360208110156100a357600080fd5b81019080803590602001909291905050506106a6565b6040518082815260200191505060405180910390f35b3480156100db57600080fd5b5061024a600480360360a08110156100f257600080fd5b810190808035906020019064010000000081111561010f57600080fd5b82018360208201111561012157600080fd5b8035906020019184600183028401116401000000008311171561014357600080fd5b91908080601f016020809104026020016040519081016040528093929190818152602001838380828437600081840152601f19601f820116905080830192505050505050509192919290803590602001906401000000008111156101a657600080fd5b8201836020820111156101b857600080fd5b803590602001918460018302840111640100000000831117156101da57600080fd5b91908080601f016020809104026020016040519081016040528093929190818152602001838380828437600081840152601f19601f820116905080830192505050505050509192919290803590602001909291908035906020019092919080359060200190929190505050610728565b6040518080602001828103825283818151815260200191508051906020019080838360005b8381101561028a57808201518184015260208101905061026f565b50505050905090810190601f1680156102b75780820380516001836020036101000a031916815260200191505b509250505060405180910390f35b3480156102d157600080fd5b50610308600480360360408110156102e857600080fd5b810190808035906020019092919080359060200190929190505050610aaa565b604051808060200180602001878152602001868152602001858152602001848152602001838103835289818151815260200191508051906020019080838360005b83811015610364578082015181840152602081019050610349565b50505050905090810190601f1680156103915780820380516001836020036101000a031916815260200191505b50838103825288818151815260200191508051906020019080838360005b838110156103ca5780820151818401526020810190506103af565b50505050905090810190601f1680156103f75780820380516001836020036101000a031916815260200191505b509850505050505050505060405180910390f35b34801561041757600080fd5b506104446004803603602081101561042e57600080fd5b8101908080359060200190929190505050610f6b565b6040518082815260200191505060405180910390f35b61049a6004803603606081101561047057600080fd5b810190808035906020019092919080359060200190929190803590602001909291905050506110a5565b6040518080602001828103825283818151815260200191508051906020019080838360005b838110156104da5780820151818401526020810190506104bf565b50505050905090810190601f1680156105075780820380516001836020036101000a031916815260200191505b509250505060405180910390f35b6105416004803603602081101561052b57600080fd5b8101908080359060200190929190505050611723565b6040518080602001828103825283818151815260200191508051906020019080838360005b83811015610581578082015181840152602081019050610566565b50505050905090810190601f1680156105ae5780820380516001836020036101000a031916815260200191505b509250505060405180910390f35b3480156105c857600080fd5b506105d1611a58565b6040518082815260200191505060405180910390f35b3480156105f357600080fd5b506106206004803603602081101561060a57600080fd5b8101908080359060200190929190505050611a65565b604051808060200183151515158152602001828103825284818151815260200191508051906020019080838360005b8381101561066a57808201518184015260208101905061064f565b50505050905090810190601f1680156106975780820380516001836020036101000a031916815260200191505b50935050505060405180910390f35b6000806000600284815481106106b857fe5b9060005260206000200160009054906101000a900473ffffffffffffffffffffffffffffffffffffffff1673ffffffffffffffffffffffffffffffffffffffff1673ffffffffffffffffffffffffffffffffffffffff168152602001908152602001600020805490509050919050565b60606000803373ffffffffffffffffffffffffffffffffffffffff1673ffffffffffffffffffffffffffffffffffffffff168152602001908152602001600020604051806101000160405280888152602001878152602001868152602001868152602001858152602001848152602001600115158152602001600115158152509080600181540180825580915050906001820390600052602060002090600702016000909192909190915060008201518160000190805190602001906107ef929190611f50565b50602082015181600101908051906020019061080c929190611f50565b5060408201518160020155606082015181600301556080820151816004015560a0820151816005015560c08201518160060160006101000a81548160ff02191690831515021790555060e08201518160060160016101000a81548160ff021916908315150217905550505050600160003373ffffffffffffffffffffffffffffffffffffffff1673ffffffffffffffffffffffffffffffffffffffff1681526020019081526020016000206000908060018154018082558091505090600182039060005260206000200160009091929091909150555060023390806001815401808255809150509060018203906000526020600020016000909192909190916101000a81548173ffffffffffffffffffffffffffffffffffffffff021916908373ffffffffffffffffffffffffffffffffffffffff160217905550507fa8db7167e92a793cb8876c1626b8d403b9e448931cacce2eca9977ff39a150a98686868686604051808060200180602001868152602001858152602001848152602001838103835288818151815260200191508051906020019080838360005b838110156109c45780820151818401526020810190506109a9565b50505050905090810190601f1680156109f15780820380516001836020036101000a031916815260200191505b50838103825287818151815260200191508051906020019080838360005b83811015610a2a578082015181840152602081019050610a0f565b50505050905090810190601f168015610a575780820380516001836020036101000a031916815260200191505b5097505050505050505060405180910390a16040518060400160405280601a81526020017f5375636365737366756c6c792041646465642050726f6a656374000000000000815250905095945050505050565b60608060008060008060008060028a81548110610ac357fe5b9060005260206000200160009054906101000a900473ffffffffffffffffffffffffffffffffffffffff1673ffffffffffffffffffffffffffffffffffffffff1673ffffffffffffffffffffffffffffffffffffffff1681526020019081526020016000208781548110610b3357fe5b906000526020600020906007020160000160008060028b81548110610b5457fe5b9060005260206000200160009054906101000a900473ffffffffffffffffffffffffffffffffffffffff1673ffffffffffffffffffffffffffffffffffffffff1673ffffffffffffffffffffffffffffffffffffffff1681526020019081526020016000208881548110610bc457fe5b906000526020600020906007020160010160008060028c81548110610be557fe5b9060005260206000200160009054906101000a900473ffffffffffffffffffffffffffffffffffffffff1673ffffffffffffffffffffffffffffffffffffffff1673ffffffffffffffffffffffffffffffffffffffff1681526020019081526020016000208981548110610c5557fe5b90600052602060002090600702016002015460008060028d81548110610c7757fe5b9060005260206000200160009054906101000a900473ffffffffffffffffffffffffffffffffffffffff1673ffffffffffffffffffffffffffffffffffffffff1673ffffffffffffffffffffffffffffffffffffffff1681526020019081526020016000208a81548110610ce757fe5b90600052602060002090600702016003015460008060028e81548110610d0957fe5b9060005260206000200160009054906101000a900473ffffffffffffffffffffffffffffffffffffffff1673ffffffffffffffffffffffffffffffffffffffff1673ffffffffffffffffffffffffffffffffffffffff1681526020019081526020016000208b81548110610d7957fe5b90600052602060002090600702016004015460008060028f81548110610d9b57fe5b9060005260206000200160009054906101000a900473ffffffffffffffffffffffffffffffffffffffff1673ffffffffffffffffffffffffffffffffffffffff1673ffffffffffffffffffffffffffffffffffffffff1681526020019081526020016000208c81548110610e0b57fe5b906000526020600020906007020160050154858054600181600116156101000203166002900480601f016020809104026020016040519081016040528092919081815260200182805460018160011615610100020316600290048015610eb25780601f10610e8757610100808354040283529160200191610eb2565b820191906000526020600020905b815481529060010190602001808311610e9557829003601f168201915b50505050509550848054600181600116156101000203166002900480601f016020809104026020016040519081016040528092919081815260200182805460018160011615610100020316600290048015610f4e5780601f10610f2357610100808354040283529160200191610f4e565b820191906000526020600020905b815481529060010190602001808311610f3157829003601f168201915b505050505094509550955095509550955095509295509295509295565b6000816000803373ffffffffffffffffffffffffffffffffffffffff1673ffffffffffffffffffffffffffffffffffffffff1681526020019081526020016000208181548110610fb757fe5b906000526020600020906007020160060160019054906101000a900460ff16611048576040517f08c379a000000000000000000000000000000000000000000000000000000000815260040180806020018281038252601b8152602001807f546869732050726f6a65637420646f6573206e6f74206578697374000000000081525060200191505060405180910390fd5b600160003373ffffffffffffffffffffffffffffffffffffffff1673ffffffffffffffffffffffffffffffffffffffff168152602001908152602001600020838154811061109257fe5b9060005260206000200154915050919050565b606083600281815481106110b557fe5b9060005260206000200160009054906101000a900473ffffffffffffffffffffffffffffffffffffffff1673ffffffffffffffffffffffffffffffffffffffff163373ffffffffffffffffffffffffffffffffffffffff161415611164576040517f08c379a000000000000000000000000000000000000000000000000000000000815260040180806020018281038252603f8152602001806120c9603f913960400191505060405180910390fd5b84846000806002848154811061117657fe5b9060005260206000200160009054906101000a900473ffffffffffffffffffffffffffffffffffffffff1673ffffffffffffffffffffffffffffffffffffffff1673ffffffffffffffffffffffffffffffffffffffff16815260200190815260200160002081815481106111e657fe5b906000526020600020906007020160060160009054906101000a900460ff1661125a576040517f08c379a00000000000000000000000000000000000000000000000000000000081526004018080602001828103825260248152602001806121086024913960400191505060405180910390fd5b346000806002858154811061126b57fe5b9060005260206000200160009054906101000a900473ffffffffffffffffffffffffffffffffffffffff1673ffffffffffffffffffffffffffffffffffffffff1673ffffffffffffffffffffffffffffffffffffffff16815260200190815260200160002082815481106112db57fe5b9060005260206000209060070201600301541115611344576040517f08c379a000000000000000000000000000000000000000000000000000000000815260040180806020018281038252602b81526020018061214e602b913960400191505060405180910390fd5b8460008060028a8154811061135557fe5b9060005260206000200160009054906101000a900473ffffffffffffffffffffffffffffffffffffffff1673ffffffffffffffffffffffffffffffffffffffff1673ffffffffffffffffffffffffffffffffffffffff16815260200190815260200160002087815481106113c557fe5b906000526020600020906007020160030160008282540392505081905550346001600060028a815481106113f557fe5b9060005260206000200160009054906101000a900473ffffffffffffffffffffffffffffffffffffffff1673ffffffffffffffffffffffffffffffffffffffff1673ffffffffffffffffffffffffffffffffffffffff168152602001908152602001600020878154811061146557fe5b90600052602060002001600082825401925050819055507f2f0d96ec3f7b225801307bda93e683f05bde0cb351bb828056eaf295d963a6973360008060028b815481106114ae57fe5b9060005260206000200160009054906101000a900473ffffffffffffffffffffffffffffffffffffffff1673ffffffffffffffffffffffffffffffffffffffff1673ffffffffffffffffffffffffffffffffffffffff168152602001908152602001600020888154811061151e57fe5b90600052602060002090600702016000013488604051808573ffffffffffffffffffffffffffffffffffffffff1673ffffffffffffffffffffffffffffffffffffffff168152602001806020018481526020018381526020018281038252858181546001816001161561010002031660029004815260200191508054600181600116156101000203166002900480156115f85780601f106115cd576101008083540402835291602001916115f8565b820191906000526020600020905b8154815290600101906020018083116115db57829003601f168201915b50509550505050505060405180910390a16000806002898154811061161957fe5b9060005260206000200160009054906101000a900473ffffffffffffffffffffffffffffffffffffffff1673ffffffffffffffffffffffffffffffffffffffff1673ffffffffffffffffffffffffffffffffffffffff168152602001908152602001600020868154811061168957fe5b9060005260206000209060070201600001604051602001808061203f60249139602401828054600181600116156101000203166002900480156117035780601f106116e1576101008083540402835291820191611703565b820191906000526020600020905b8154815290600101906020018083116116ef575b505091505060405160208183030381529060405293505050509392505050565b6060816000600160003373ffffffffffffffffffffffffffffffffffffffff1673ffffffffffffffffffffffffffffffffffffffff168152602001908152602001600020828154811061177257fe5b906000526020600020015414156117d4576040517f08c379a000000000000000000000000000000000000000000000000000000000815260040180806020018281038252602281526020018061212c6022913960400191505060405180910390fd5b3373ffffffffffffffffffffffffffffffffffffffff166108fc600160003373ffffffffffffffffffffffffffffffffffffffff1673ffffffffffffffffffffffffffffffffffffffff168152602001908152602001600020858154811061183857fe5b90600052602060002001549081150290604051600060405180830381858888f1935050505015801561186e573d6000803e3d6000fd5b507f779bb8e27b6203f2cc7bc9ba164ca8802e346d24701c74407945c2baf040f7636000803373ffffffffffffffffffffffffffffffffffffffff1673ffffffffffffffffffffffffffffffffffffffff16815260200190815260200160002084815481106118d957fe5b9060005260206000209060070201600001600160003373ffffffffffffffffffffffffffffffffffffffff1673ffffffffffffffffffffffffffffffffffffffff168152602001908152602001600020858154811061193457fe5b906000526020600020015460405180806020018381526020018281038252848181546001816001161561010002031660029004815260200191508054600181600116156101000203166002900480156119ce5780601f106119a3576101008083540402835291602001916119ce565b820191906000526020600020905b8154815290600101906020018083116119b157829003601f168201915b5050935050505060405180910390a16000600160003373ffffffffffffffffffffffffffffffffffffffff1673ffffffffffffffffffffffffffffffffffffffff1681526020019081526020016000208481548110611a2957fe5b906000526020600020018190555060405180606001604052806033815260200161206360339139915050919050565b6000600280549050905090565b60606000826000803373ffffffffffffffffffffffffffffffffffffffff1673ffffffffffffffffffffffffffffffffffffffff1681526020019081526020016000208181548110611ab357fe5b906000526020600020906007020160060160019054906101000a900460ff16611b44576040517f08c379a000000000000000000000000000000000000000000000000000000000815260040180806020018281038252601b8152602001807f546869732050726f6a65637420646f6573206e6f74206578697374000000000081525060200191505060405180910390fd5b611b4c611fd0565b6000803373ffffffffffffffffffffffffffffffffffffffff1673ffffffffffffffffffffffffffffffffffffffff1681526020019081526020016000208581548110611b9557fe5b906000526020600020906007020160405180610100016040529081600082018054600181600116156101000203166002900480601f016020809104026020016040519081016040528092919081815260200182805460018160011615610100020316600290048015611c485780601f10611c1d57610100808354040283529160200191611c48565b820191906000526020600020905b815481529060010190602001808311611c2b57829003601f168201915b50505050508152602001600182018054600181600116156101000203166002900480601f016020809104026020016040519081016040528092919081815260200182805460018160011615610100020316600290048015611cea5780601f10611cbf57610100808354040283529160200191611cea565b820191906000526020600020905b815481529060010190602001808311611ccd57829003601f168201915b50505050508152602001600282015481526020016003820154815260200160048201548152602001600582015481526020016006820160009054906101000a900460ff161515151581526020016006820160019054906101000a900460ff161515151581525050905060648160a0015182604001510281611d6757fe5b04600160003373ffffffffffffffffffffffffffffffffffffffff1673ffffffffffffffffffffffffffffffffffffffff1681526020019081526020016000208681548110611db257fe5b906000526020600020015410611f28576000803373ffffffffffffffffffffffffffffffffffffffff1673ffffffffffffffffffffffffffffffffffffffff1681526020019081526020016000208581548110611e0b57fe5b906000526020600020906007020160060160009054906101000a900460ff1615611ee55760008060003373ffffffffffffffffffffffffffffffffffffffff1673ffffffffffffffffffffffffffffffffffffffff1681526020019081526020016000208681548110611e7a57fe5b906000526020600020906007020160060160006101000a81548160ff02191690831515021790555060016040518060400160405280601c81526020017f50726f6a656374207375636365737366756c6c792053746f7070656400000000815250909350935050611f4a565b60006040518060400160405280601781526020017f50726f6a65637420616c72656164792053746f70706564000000000000000000815250909350935050611f4a565b6000604051806060016040528060338152602001612096603391399093509350505b50915091565b828054600181600116156101000203166002900490600052602060002090601f016020900481019282601f10611f9157805160ff1916838001178555611fbf565b82800160010185558215611fbf579182015b82811115611fbe578251825591602001919060010190611fa3565b5b509050611fcc9190612019565b5090565b6040518061010001604052806060815260200160608152602001600081526020016000815260200160008152602001600081526020016000151581526020016000151581525090565b61203b91905b8082111561203757600081600090555060010161201f565b5090565b9056fe596f75207375636365737366756c6c7920696e7665737420696e2070726f6a6563743a205375636365737366756c6c7920776974686472617720796f75722062616c616e636520666f7220746869732070726f6a6563745468652070726f6a65637420646f6573206e6f74206163636f6d706c697368207468652066696e69736820637269746572696154686520696e766573746f722063616e2774206265207468652073616d6520706572736f6e2077686f207075626c6973686564207468652070726f6a656374546869732070726f6a6563742069732073746f7070656420627920686973206f776e6572596f752068617665206e6f20666f756e647320696e20746861742070726f6a656374596f752063616e2774206275792061206869676865722076616c7565207468616e20617661696c61626c65a265627a7a72315820e08c89cb239cdf1eda2842c38480c28f101e6052cab4c213dd9f6a4bbe2ea0ee64736f6c634300050c0032",
  "source": "pragma solidity ^0.5.0;\r\n\r\ncontract TrustMe {\r\n  // TrustMe events\r\n  event newProject(string name, string description, uint stakeToSell, uint projectValuation, uint finishCriteria);\r\n  event investment(address investor, string projectName, uint amount, uint stakeBuyed);\r\n  event projectWithdraw(string name, uint balance);\r\n  // PROJECT STRUCTURE MODEL\r\n  struct Project {\r\n    string name;\r\n    string description;\r\n    uint stakeToSell;\r\n    uint availableStake;\r\n    uint projectValuation;\r\n    uint finishCriteria;\r\n    bool availableToInvest;\r\n    bool validProject;\r\n  }\r\n  // projects storage\r\n  mapping(address => Project[]) private projects; //projects storage\r\n  mapping(address => uint[]) private projectsBalances; //project balances\r\n  address[] private projectsIndexes; //projects order by address\r\n  // ask only for investor\r\n  modifier onlyInvestor(uint projectAddressIndex) {\r\n    require(\r\n      msg.sender != projectsIndexes[projectAddressIndex],\r\n      \"The investor can't be the same person who published the project\"\r\n    );\r\n    _;\r\n  }\r\n  // ask if the project is available to invest\r\n  modifier availableToBuy(uint projectAddressIndex,uint projectIndex){\r\n    require(\r\n      projects[projectsIndexes[projectAddressIndex]][projectIndex].availableToInvest,\r\n      \"This project is stopped by his owner\"\r\n    );\r\n    require(\r\n      projects[projectsIndexes[projectAddressIndex]][projectIndex].availableStake <= msg.value,\r\n      \"You can't buy a higher value than available\"\r\n    );\r\n    _;\r\n  }\r\n  // ask if the project has founds\r\n  modifier withFounds(uint projectIndex) {\r\n    require(projectsBalances[msg.sender][projectIndex] != 0, 'You have no founds in that project');\r\n    _;\r\n  }\r\n  // ask if msg address has project\r\n  modifier entrepeurWithProjects(uint projectIndex) {\r\n    require(projects[msg.sender][projectIndex].validProject,'This Project does not exist');\r\n    _;\r\n  }\r\n  // adding a new project\r\n  function addProject (\r\n    string memory name,\r\n    string memory description,\r\n    uint stakeToSell,\r\n    uint projectValuation,\r\n    uint finishCriteria\r\n  ) public returns(\r\n    string memory message\r\n  ){\r\n    projects[msg.sender].push(\r\n      Project({\r\n        name: name,\r\n        description: description,\r\n        stakeToSell: stakeToSell,\r\n        availableStake: stakeToSell,\r\n        projectValuation: projectValuation,\r\n        finishCriteria: finishCriteria,\r\n        availableToInvest: true,\r\n        validProject: true\r\n      })\r\n    );\r\n    projectsBalances[msg.sender].push(0);\r\n    projectsIndexes.push(msg.sender);\r\n    emit newProject(name, description, stakeToSell, projectValuation, finishCriteria);\r\n    return(\"Successfully Added Project\");\r\n  }\r\n  // get all projects count\r\n  function getProjectsCount() public view returns (uint){\r\n    return projectsIndexes.length;\r\n  }\r\n  // get all address projects count\r\n  function getAddressProjectsCount (\r\n    uint projectIndex\r\n  ) public view returns (\r\n    uint addressProjectsLength\r\n  ) {\r\n    return projects[projectsIndexes[projectIndex]].length;\r\n  }\r\n  // get specific project\r\n  function getProject (\r\n    uint projectAddressIndex,\r\n    uint projectIndex\r\n  ) public view returns (\r\n    string memory name,\r\n    string memory description,\r\n    uint stakeToSell,\r\n    uint availableStake,\r\n    uint projectValuation,\r\n    uint finishCriteria\r\n  ) {\r\n    return (\r\n      projects[projectsIndexes[projectAddressIndex]][projectIndex].name,\r\n      projects[projectsIndexes[projectAddressIndex]][projectIndex].description,\r\n      projects[projectsIndexes[projectAddressIndex]][projectIndex].stakeToSell,\r\n      projects[projectsIndexes[projectAddressIndex]][projectIndex].availableStake,\r\n      projects[projectsIndexes[projectAddressIndex]][projectIndex].projectValuation,\r\n      projects[projectsIndexes[projectAddressIndex]][projectIndex].finishCriteria\r\n    );\r\n  }\r\n  // get project balance\r\n  function getProjectBalance(\r\n    uint projectIndex\r\n  ) public entrepeurWithProjects(projectIndex) view returns (uint balance) {\r\n    return projectsBalances[msg.sender][projectIndex];\r\n  }\r\n  // invest in project\r\n  function investInProject(\r\n    uint projectAddressIndex,\r\n    uint projectIndex,\r\n    uint projectStakeVal\r\n  ) public onlyInvestor(projectAddressIndex) availableToBuy(projectAddressIndex,projectIndex) payable returns (string memory message) {\r\n    projects[projectsIndexes[projectAddressIndex]][projectIndex].availableStake -= projectStakeVal;\r\n    projectsBalances[projectsIndexes[projectAddressIndex]][projectIndex] += msg.value;\r\n    emit investment(msg.sender, projects[projectsIndexes[projectAddressIndex]][projectIndex].name, msg.value, projectStakeVal);\r\n    return string(abi.encodePacked('You successfully invest in project: ',projects[projectsIndexes[projectAddressIndex]][projectIndex].name));\r\n  }\r\n  // stop project investment round\r\n  function stopProjectInvestmentRound(\r\n    uint projectIndex\r\n  ) public entrepeurWithProjects(projectIndex) returns (string memory message, bool success) {\r\n    Project memory projectToPause = projects[msg.sender][projectIndex];\r\n    if (projectsBalances[msg.sender][projectIndex] >= ((projectToPause.stakeToSell * projectToPause.finishCriteria) / 100)) {\r\n      if (projects[msg.sender][projectIndex].availableToInvest) {\r\n        projects[msg.sender][projectIndex].availableToInvest = false;\r\n        return ('Project successfully Stopped', true);\r\n      } else {\r\n        return ('Project already Stopped', false);\r\n      }\r\n    } else {\r\n      return ('The project does not accomplish the finish criteria', false);\r\n    }\r\n  }\r\n  // withdraw project balance\r\n  function withdrawProjectBalance(\r\n    uint projectIndex\r\n  ) public withFounds(projectIndex) payable returns(string memory messsage){\r\n    msg.sender.transfer(projectsBalances[msg.sender][projectIndex]);\r\n    emit projectWithdraw(projects[msg.sender][projectIndex].name, projectsBalances[msg.sender][projectIndex]);\r\n    projectsBalances[msg.sender][projectIndex] = 0;\r\n    return ('Successfully withdraw your balance for this project');\r\n  }\r\n}",
  "sourcePath": "/mnt/c/Users/OXOFT/Documents/CURSOS/TrustMe/contracts/TrustMe.sol",
  "compiler": {
    "name": "solc",
    "version": "0.5.12+commit.7709ece9.Emscripten.clang"
  },
  "schemaVersion": "3.0.19",
  "updatedAt": "2019-12-02T12:18:48.537Z",
  "networkType": "ethereum",
  "devdoc": {
    "methods": {}
  },
  "userdoc": {
    "methods": {}
  }
}