{
  "contractName": "TrustMe",
  "abi": [
    {
      "anonymous": false,
      "inputs": [
        {
          "indexed": false,
          "internalType": "address",
          "name": "investor",
          "type": "address"
        },
        {
          "indexed": false,
          "internalType": "string",
          "name": "projectName",
          "type": "string"
        },
        {
          "indexed": false,
          "internalType": "uint256",
          "name": "amount",
          "type": "uint256"
        },
        {
          "indexed": false,
          "internalType": "uint256",
          "name": "stakeBuyed",
          "type": "uint256"
        }
      ],
      "name": "investment",
      "type": "event"
    },
    {
      "anonymous": false,
      "inputs": [
        {
          "indexed": false,
          "internalType": "string",
          "name": "name",
          "type": "string"
        },
        {
          "indexed": false,
          "internalType": "string",
          "name": "description",
          "type": "string"
        },
        {
          "indexed": false,
          "internalType": "uint256",
          "name": "stakeToSell",
          "type": "uint256"
        },
        {
          "indexed": false,
          "internalType": "uint256",
          "name": "projectValuation",
          "type": "uint256"
        },
        {
          "indexed": false,
          "internalType": "uint256",
          "name": "finishCriteria",
          "type": "uint256"
        }
      ],
      "name": "newProject",
      "type": "event"
    },
    {
      "anonymous": false,
      "inputs": [
        {
          "indexed": false,
          "internalType": "string",
          "name": "name",
          "type": "string"
        },
        {
          "indexed": false,
          "internalType": "uint256",
          "name": "balance",
          "type": "uint256"
        }
      ],
      "name": "projectWithdraw",
      "type": "event"
    },
    {
      "constant": false,
      "inputs": [
        {
          "internalType": "string",
          "name": "name",
          "type": "string"
        },
        {
          "internalType": "string",
          "name": "description",
          "type": "string"
        },
        {
          "internalType": "uint256",
          "name": "stakeToSell",
          "type": "uint256"
        },
        {
          "internalType": "uint256",
          "name": "projectValuation",
          "type": "uint256"
        },
        {
          "internalType": "uint256",
          "name": "finishCriteria",
          "type": "uint256"
        }
      ],
      "name": "addProject",
      "outputs": [
        {
          "internalType": "string",
          "name": "message",
          "type": "string"
        }
      ],
      "payable": false,
      "stateMutability": "nonpayable",
      "type": "function"
    },
    {
      "constant": true,
      "inputs": [],
      "name": "getProjectsCount",
      "outputs": [
        {
          "internalType": "uint256",
          "name": "",
          "type": "uint256"
        }
      ],
      "payable": false,
      "stateMutability": "view",
      "type": "function"
    },
    {
      "constant": true,
      "inputs": [],
      "name": "getAddressProjectsCount",
      "outputs": [
        {
          "internalType": "uint256",
          "name": "addressProjectsLength",
          "type": "uint256"
        }
      ],
      "payable": false,
      "stateMutability": "view",
      "type": "function"
    },
    {
      "constant": true,
      "inputs": [
        {
          "internalType": "uint256",
          "name": "projectIndex",
          "type": "uint256"
        }
      ],
      "name": "getProject",
      "outputs": [
        {
          "internalType": "string",
          "name": "name",
          "type": "string"
        },
        {
          "internalType": "string",
          "name": "description",
          "type": "string"
        },
        {
          "internalType": "uint256",
          "name": "stakeToSell",
          "type": "uint256"
        },
        {
          "internalType": "uint256",
          "name": "availableStake",
          "type": "uint256"
        },
        {
          "internalType": "uint256",
          "name": "projectValuation",
          "type": "uint256"
        },
        {
          "internalType": "uint256",
          "name": "finishCriteria",
          "type": "uint256"
        },
        {
          "internalType": "uint256",
          "name": "projectBalance",
          "type": "uint256"
        }
      ],
      "payable": false,
      "stateMutability": "view",
      "type": "function"
    },
    {
      "constant": true,
      "inputs": [
        {
          "internalType": "uint256",
          "name": "projectIndex",
          "type": "uint256"
        }
      ],
      "name": "getProjectBalance",
      "outputs": [
        {
          "internalType": "uint256",
          "name": "balance",
          "type": "uint256"
        }
      ],
      "payable": false,
      "stateMutability": "view",
      "type": "function"
    },
    {
      "constant": false,
      "inputs": [
        {
          "internalType": "uint256",
          "name": "projectIndex",
          "type": "uint256"
        },
        {
          "internalType": "uint256",
          "name": "projectStakeVal",
          "type": "uint256"
        }
      ],
      "name": "investInProject",
      "outputs": [],
      "payable": true,
      "stateMutability": "payable",
      "type": "function"
    },
    {
      "constant": false,
      "inputs": [
        {
          "internalType": "uint256",
          "name": "projectIndex",
          "type": "uint256"
        }
      ],
      "name": "stopProjectInvestmentRound",
      "outputs": [
        {
          "internalType": "string",
          "name": "message",
          "type": "string"
        },
        {
          "internalType": "bool",
          "name": "success",
          "type": "bool"
        }
      ],
      "payable": false,
      "stateMutability": "nonpayable",
      "type": "function"
    },
    {
      "constant": false,
      "inputs": [
        {
          "internalType": "uint256",
          "name": "projectIndex",
          "type": "uint256"
        }
      ],
      "name": "withdrawProjectBalance",
      "outputs": [],
      "payable": true,
      "stateMutability": "payable",
      "type": "function"
    }
  ],
  "bytecode": "0x608060405234801561001057600080fd5b50611a14806100206000396000f3fe60806040526004361061007b5760003560e01c8063d49cb0241161004e578063d49cb02414610328578063e4a8f18b14610356578063e658752814610381578063f0f3f2c8146104405761007b565b8063336f56dc1461008057806340c58b0d146100b85780637d565d86146102ae5780637f90757d146102d9575b600080fd5b6100b66004803603604081101561009657600080fd5b810190808035906020019092919080359060200190929190505050610583565b005b3480156100c457600080fd5b50610233600480360360a08110156100db57600080fd5b81019080803590602001906401000000008111156100f857600080fd5b82018360208201111561010a57600080fd5b8035906020019184600183028401116401000000008311171561012c57600080fd5b91908080601f016020809104026020016040519081016040528093929190818152602001838380828437600081840152601f19601f8201169050808301925050505050505091929192908035906020019064010000000081111561018f57600080fd5b8201836020820111156101a157600080fd5b803590602001918460018302840111640100000000831117156101c357600080fd5b91908080601f016020809104026020016040519081016040528093929190818152602001838380828437600081840152601f19601f8201169050808301925050505050505091929192908035906020019092919080359060200190929190803590602001909291905050506108e1565b6040518080602001828103825283818151815260200191508051906020019080838360005b83811015610273578082015181840152602081019050610258565b50505050905090810190601f1680156102a05780820380516001836020036101000a031916815260200191505b509250505060405180910390f35b3480156102ba57600080fd5b506102c3610c35565b6040518082815260200191505060405180910390f35b3480156102e557600080fd5b50610312600480360360208110156102fc57600080fd5b8101908080359060200190929190505050610c7e565b6040518082815260200191505060405180910390f35b6103546004803603602081101561033e57600080fd5b8101908080359060200190929190505050610d46565b005b34801561036257600080fd5b5061036b611100565b6040518082815260200191505060405180910390f35b34801561038d57600080fd5b506103ba600480360360208110156103a457600080fd5b810190808035906020019092919050505061110d565b604051808060200183151515158152602001828103825284818151815260200191508051906020019080838360005b838110156104045780820151818401526020810190506103e9565b50505050905090810190601f1680156104315780820380516001836020036101000a031916815260200191505b50935050505060405180910390f35b34801561044c57600080fd5b506104796004803603602081101561046357600080fd5b8101908080359060200190929190505050611519565b60405180806020018060200188815260200187815260200186815260200185815260200184815260200183810383528a818151815260200191508051906020019080838360005b838110156104db5780820151818401526020810190506104c0565b50505050905090810190601f1680156105085780820380516001836020036101000a031916815260200191505b50838103825289818151815260200191508051906020019080838360005b83811015610541578082015181840152602081019050610526565b50505050905090810190601f16801561056e5780820380516001836020036101000a031916815260200191505b50995050505050505050505060405180910390f35b8161061a816000803373ffffffffffffffffffffffffffffffffffffffff1673ffffffffffffffffffffffffffffffffffffffff16815260200190815260200160002080548060200260200160405190810160405280929190818152602001828054801561061057602002820191906000526020600020905b8154815260200190600101908083116105fc575b505050505061179b565b15610670576040517f08c379a000000000000000000000000000000000000000000000000000000000815260040180806020018281038252603f815260200180611930603f913960400191505060405180910390fd5b826001818154811061067e57fe5b906000526020600020906009020160060160009054906101000a900460ff166106f2576040517f08c379a000000000000000000000000000000000000000000000000000000000815260040180806020018281038252602481526020018061196f6024913960400191505060405180910390fd5b346001828154811061070057fe5b9060005260206000209060090201600301541115610769576040517f08c379a000000000000000000000000000000000000000000000000000000000815260040180806020018281038252602b8152602001806119b5602b913960400191505060405180910390fd5b826001858154811061077757fe5b90600052602060002090600902016003016000828254039250508190555034600185815481106107a357fe5b9060005260206000209060090201600701600082825401925050819055507f2f0d96ec3f7b225801307bda93e683f05bde0cb351bb828056eaf295d963a69733600186815481106107f057fe5b90600052602060002090600902016000013486604051808573ffffffffffffffffffffffffffffffffffffffff1673ffffffffffffffffffffffffffffffffffffffff168152602001806020018481526020018381526020018281038252858181546001816001161561010002031660029004815260200191508054600181600116156101000203166002900480156108ca5780601f1061089f576101008083540402835291602001916108ca565b820191906000526020600020905b8154815290600101906020018083116108ad57829003601f168201915b50509550505050505060405180910390a150505050565b60606000803373ffffffffffffffffffffffffffffffffffffffff1673ffffffffffffffffffffffffffffffffffffffff1681526020019081526020016000206001806040518061014001604052808a81526020018981526020018881526020018881526020018781526020018681526020016001151581526020013373ffffffffffffffffffffffffffffffffffffffff16815260200160008152602001600115158152509080600181540180825580915050906001820390600052602060002090600902016000909192909190915060008201518160000190805190602001906109ce9291906117ea565b5060208201518160010190805190602001906109eb9291906117ea565b5060408201518160020155606082015181600301556080820151816004015560a0820151816005015560c08201518160060160006101000a81548160ff02191690831515021790555060e08201518160060160016101000a81548173ffffffffffffffffffffffffffffffffffffffff021916908373ffffffffffffffffffffffffffffffffffffffff16021790555061010082015181600701556101208201518160080160006101000a81548160ff02191690831515021790555050500390806001815401808255809150509060018203906000526020600020016000909192909190915055507fa8db7167e92a793cb8876c1626b8d403b9e448931cacce2eca9977ff39a150a98686868686604051808060200180602001868152602001858152602001848152602001838103835288818151815260200191508051906020019080838360005b83811015610b4f578082015181840152602081019050610b34565b50505050905090810190601f168015610b7c5780820380516001836020036101000a031916815260200191505b50838103825287818151815260200191508051906020019080838360005b83811015610bb5578082015181840152602081019050610b9a565b50505050905090810190601f168015610be25780820380516001836020036101000a031916815260200191505b5097505050505050505060405180910390a16040518060400160405280601a81526020017f5375636365737366756c6c792041646465642050726f6a656374000000000000815250905095945050505050565b60008060003373ffffffffffffffffffffffffffffffffffffffff1673ffffffffffffffffffffffffffffffffffffffff16815260200190815260200160002080549050905090565b60008160018181548110610c8e57fe5b906000526020600020906009020160080160009054906101000a900460ff16610d1f576040517f08c379a000000000000000000000000000000000000000000000000000000000815260040180806020018281038252601b8152602001807f546869732050726f6a65637420646f6573206e6f74206578697374000000000081525060200191505060405180910390fd5b60018381548110610d2c57fe5b906000526020600020906009020160070154915050919050565b80600060018281548110610d5657fe5b9060005260206000209060090201600701541415610dbf576040517f08c379a00000000000000000000000000000000000000000000000000000000081526004018080602001828103825260228152602001806119936022913960400191505060405180910390fd5b610dc761186a565b60018381548110610dd457fe5b906000526020600020906009020160405180610140016040529081600082018054600181600116156101000203166002900480601f016020809104026020016040519081016040528092919081815260200182805460018160011615610100020316600290048015610e875780601f10610e5c57610100808354040283529160200191610e87565b820191906000526020600020905b815481529060010190602001808311610e6a57829003601f168201915b50505050508152602001600182018054600181600116156101000203166002900480601f016020809104026020016040519081016040528092919081815260200182805460018160011615610100020316600290048015610f295780601f10610efe57610100808354040283529160200191610f29565b820191906000526020600020905b815481529060010190602001808311610f0c57829003601f168201915b50505050508152602001600282015481526020016003820154815260200160048201548152602001600582015481526020016006820160009054906101000a900460ff161515151581526020016006820160019054906101000a900473ffffffffffffffffffffffffffffffffffffffff1673ffffffffffffffffffffffffffffffffffffffff1673ffffffffffffffffffffffffffffffffffffffff168152602001600782015481526020016008820160009054906101000a900460ff16151515158152505090508060e0015173ffffffffffffffffffffffffffffffffffffffff166108fc8261010001519081150290604051600060405180830381858888f19350505050158015611041573d6000803e3d6000fd5b507f779bb8e27b6203f2cc7bc9ba164ca8802e346d24701c74407945c2baf040f76381600001518261010001516040518080602001838152602001828103825284818151815260200191508051906020019080838360005b838110156110b4578082015181840152602081019050611099565b50505050905090810190601f1680156110e15780820380516001836020036101000a031916815260200191505b50935050505060405180910390a1600081610100018181525050505050565b6000600180549050905090565b60606000826001818154811061111f57fe5b906000526020600020906009020160080160009054906101000a900460ff166111b0576040517f08c379a000000000000000000000000000000000000000000000000000000000815260040180806020018281038252601b8152602001807f546869732050726f6a65637420646f6573206e6f74206578697374000000000081525060200191505060405180910390fd5b6111b861186a565b600185815481106111c557fe5b906000526020600020906009020160405180610140016040529081600082018054600181600116156101000203166002900480601f0160208091040260200160405190810160405280929190818152602001828054600181600116156101000203166002900480156112785780601f1061124d57610100808354040283529160200191611278565b820191906000526020600020905b81548152906001019060200180831161125b57829003601f168201915b50505050508152602001600182018054600181600116156101000203166002900480601f01602080910402602001604051908101604052809291908181526020018280546001816001161561010002031660029004801561131a5780601f106112ef5761010080835404028352916020019161131a565b820191906000526020600020905b8154815290600101906020018083116112fd57829003601f168201915b50505050508152602001600282015481526020016003820154815260200160048201548152602001600582015481526020016006820160009054906101000a900460ff161515151581526020016006820160019054906101000a900473ffffffffffffffffffffffffffffffffffffffff1673ffffffffffffffffffffffffffffffffffffffff1673ffffffffffffffffffffffffffffffffffffffff168152602001600782015481526020016008820160009054906101000a900460ff161515151581525050905060648160a00151826040015102816113f757fe5b04816101000151106114f1576001858154811061141057fe5b906000526020600020906009020160060160009054906101000a900460ff16156114ae5760006001868154811061144357fe5b906000526020600020906009020160060160006101000a81548160ff02191690831515021790555060016040518060400160405280601c81526020017f50726f6a656374207375636365737366756c6c792053746f7070656400000000815250909350935050611513565b60006040518060400160405280601781526020017f50726f6a65637420616c72656164792053746f70706564000000000000000000815250909350935050611513565b60006040518060600160405280603381526020016118fd603391399093509350505b50915091565b606080600080600080600061152c61186a565b6001898154811061153957fe5b906000526020600020906009020160405180610140016040529081600082018054600181600116156101000203166002900480601f0160208091040260200160405190810160405280929190818152602001828054600181600116156101000203166002900480156115ec5780601f106115c1576101008083540402835291602001916115ec565b820191906000526020600020905b8154815290600101906020018083116115cf57829003601f168201915b50505050508152602001600182018054600181600116156101000203166002900480601f01602080910402602001604051908101604052809291908181526020018280546001816001161561010002031660029004801561168e5780601f106116635761010080835404028352916020019161168e565b820191906000526020600020905b81548152906001019060200180831161167157829003601f168201915b50505050508152602001600282015481526020016003820154815260200160048201548152602001600582015481526020016006820160009054906101000a900460ff161515151581526020016006820160019054906101000a900473ffffffffffffffffffffffffffffffffffffffff1673ffffffffffffffffffffffffffffffffffffffff1673ffffffffffffffffffffffffffffffffffffffff168152602001600782015481526020016008820160009054906101000a900460ff1615151515815250509050806000015181602001518260400151836060015184608001518560a00151866101000151869650859550975097509750975097509750975050919395979092949650565b600080600090505b82518110156117de57838382815181106117b957fe5b602002602001015114156117d15760019150506117e4565b80806001019150506117a3565b50600090505b92915050565b828054600181600116156101000203166002900490600052602060002090601f016020900481019282601f1061182b57805160ff1916838001178555611859565b82800160010185558215611859579182015b8281111561185857825182559160200191906001019061183d565b5b50905061186691906118d7565b5090565b604051806101400160405280606081526020016060815260200160008152602001600081526020016000815260200160008152602001600015158152602001600073ffffffffffffffffffffffffffffffffffffffff168152602001600081526020016000151581525090565b6118f991905b808211156118f55760008160009055506001016118dd565b5090565b9056fe5468652070726f6a65637420646f6573206e6f74206163636f6d706c697368207468652066696e69736820637269746572696154686520696e766573746f722063616e2774206265207468652073616d6520706572736f6e2077686f207075626c6973686564207468652070726f6a656374546869732070726f6a6563742069732073746f7070656420627920686973206f776e6572596f752068617665206e6f20666f756e647320696e20746861742070726f6a656374596f752063616e2774206275792061206869676865722076616c7565207468616e20617661696c61626c65a265627a7a723158204439eb87a535afce46d25ed8b570634abd39f0d8e50a291307d753bcfe951dcf64736f6c634300050c0032",
  "source": "pragma solidity ^0.5.0;\r\n\r\ncontract TrustMe {\r\n  // TrustMe events\r\n  event newProject(string name, string description, uint stakeToSell, uint projectValuation, uint finishCriteria);\r\n  event investment(address investor, string projectName, uint amount, uint stakeBuyed);\r\n  event projectWithdraw(string name, uint balance);\r\n  // PROJECT STRUCTURE MODEL\r\n  struct Project {\r\n    string name;\r\n    string description;\r\n    uint stakeToSell;\r\n    uint availableStake;\r\n    uint projectValuation;\r\n    uint finishCriteria;\r\n    bool availableToInvest;\r\n    address payable ownerAddress;\r\n    uint balance;\r\n    bool validProject;\r\n  }\r\n  mapping(address => uint[]) private projects; //projects storage\r\n  Project[] private projectsStorage; //projects order by address\r\n  // ask only for investor\r\n  modifier onlyInvestor(uint projectIndex) {\r\n    require(\r\n      !contains(projectIndex,projects[msg.sender]),\r\n      \"The investor can't be the same person who published the project\"\r\n    );\r\n    _;\r\n  }\r\n  // ask if the project is available to invest\r\n  modifier availableToBuy(uint projectIndex){\r\n    require(\r\n      projectsStorage[projectIndex].availableToInvest,\r\n      \"This project is stopped by his owner\"\r\n    );\r\n    require(\r\n      projectsStorage[projectIndex].availableStake <= msg.value,\r\n      \"You can't buy a higher value than available\"\r\n    );\r\n    _;\r\n  }\r\n  // ask if the project has founds\r\n  modifier withFounds(uint projectIndex){\r\n    require(projectsStorage[projectIndex].balance != 0, 'You have no founds in that project');\r\n    _;\r\n  }\r\n  // ask if msg address has project\r\n  modifier entrepeurWithProjects(uint projectIndex){\r\n    require(projectsStorage[projectIndex].validProject,'This Project does not exist');\r\n    _;\r\n  }\r\n  // check if elements exists in array\r\n  function contains(\r\n    uint element,\r\n    uint[] memory arrayToSearch\r\n  ) private pure returns(bool success) {\r\n    for(uint i = 0; i<arrayToSearch.length; i++) {\r\n      if(arrayToSearch[i] == element)return true;\r\n    }\r\n    return false;\r\n  }\r\n  // adding a new project\r\n  function addProject (\r\n    string memory name,\r\n    string memory description,\r\n    uint stakeToSell,\r\n    uint projectValuation,\r\n    uint finishCriteria\r\n  ) public returns(\r\n    string memory message\r\n  ){\r\n    projects[msg.sender].push(\r\n      projectsStorage.push(\r\n        Project({\r\n          name: name,\r\n          description: description,\r\n          stakeToSell: stakeToSell,\r\n          availableStake: stakeToSell,\r\n          projectValuation: projectValuation,\r\n          finishCriteria: finishCriteria,\r\n          availableToInvest: true,\r\n          ownerAddress: msg.sender,\r\n          balance: 0,\r\n          validProject: true\r\n        })\r\n      )-1\r\n    );\r\n    emit newProject(name, description, stakeToSell, projectValuation, finishCriteria);\r\n    return(\"Successfully Added Project\");\r\n  }\r\n  // get all projects count\r\n  function getProjectsCount() public view returns (uint){\r\n    return projectsStorage.length;\r\n  }\r\n  // get all address projects count\r\n  function getAddressProjectsCount () public view returns (\r\n    uint addressProjectsLength\r\n  ) {\r\n    return projects[msg.sender].length;\r\n  }\r\n  // get specific project\r\n  function getProject (\r\n    uint projectIndex\r\n  ) public view returns (\r\n    string memory name,\r\n    string memory description,\r\n    uint stakeToSell,\r\n    uint availableStake,\r\n    uint projectValuation,\r\n    uint finishCriteria,\r\n    uint projectBalance\r\n  ) {\r\n    Project memory projectToReturn = projectsStorage[projectIndex];\r\n    return (\r\n      projectToReturn.name,\r\n      projectToReturn.description,\r\n      projectToReturn.stakeToSell,\r\n      projectToReturn.availableStake,\r\n      projectToReturn.projectValuation,\r\n      projectToReturn.finishCriteria,\r\n      projectToReturn.balance\r\n    );\r\n  }\r\n  // get project balance\r\n  function getProjectBalance(\r\n    uint projectIndex\r\n  ) public entrepeurWithProjects(projectIndex) view returns (uint balance) {\r\n    return projectsStorage[projectIndex].balance;\r\n  }\r\n  // invest in project\r\n  function investInProject(\r\n    uint projectIndex,\r\n    uint projectStakeVal\r\n  ) public onlyInvestor(projectIndex) availableToBuy(projectIndex) payable {\r\n    projectsStorage[projectIndex].availableStake -= projectStakeVal;\r\n    projectsStorage[projectIndex].balance += msg.value;\r\n    emit investment(msg.sender, projectsStorage[projectIndex].name, msg.value, projectStakeVal);\r\n  }\r\n  // stop project investment round\r\n  function stopProjectInvestmentRound(\r\n    uint projectIndex\r\n  ) public entrepeurWithProjects(projectIndex) returns (string memory message, bool success) {\r\n    Project memory projectToPause = projectsStorage[projectIndex];\r\n    if (projectToPause.balance >= ((projectToPause.stakeToSell * projectToPause.finishCriteria) / 100)) {\r\n      if (projectsStorage[projectIndex].availableToInvest) {\r\n        projectsStorage[projectIndex].availableToInvest = false;\r\n        return ('Project successfully Stopped', true);\r\n      } else {\r\n        return ('Project already Stopped', false);\r\n      }\r\n    } else {\r\n      return ('The project does not accomplish the finish criteria', false);\r\n    }\r\n  }\r\n  // withdraw project balance\r\n  function withdrawProjectBalance(\r\n    uint projectIndex\r\n  ) public withFounds(projectIndex) payable{\r\n    Project memory projectToWithdraw = projectsStorage[projectIndex];\r\n    projectToWithdraw.ownerAddress.transfer(projectToWithdraw.balance);\r\n    emit projectWithdraw(projectToWithdraw.name, projectToWithdraw.balance);\r\n    projectToWithdraw.balance = 0;\r\n  }\r\n}",
  "sourcePath": "/mnt/c/Users/OXOFT/Documents/CURSOS/TrustMe/contracts/TrustMe.sol",
  "compiler": {
    "name": "solc",
    "version": "0.5.12+commit.7709ece9.Emscripten.clang"
  },
  "schemaVersion": "3.0.19",
  "updatedAt": "2019-12-03T15:40:48.851Z",
  "networkType": "ethereum",
  "devdoc": {
    "methods": {}
  },
  "userdoc": {
    "methods": {}
  }
}