{
  "contractName": "TrustMe",
  "abi": [
    {
      "anonymous": false,
      "inputs": [
        {
          "indexed": false,
          "internalType": "string",
          "name": "fileName",
          "type": "string"
        },
        {
          "indexed": false,
          "internalType": "uint256",
          "name": "branchId",
          "type": "uint256"
        }
      ],
      "name": "__AssertPostCoverageTrustMe",
      "type": "event"
    },
    {
      "anonymous": false,
      "inputs": [
        {
          "indexed": false,
          "internalType": "string",
          "name": "fileName",
          "type": "string"
        },
        {
          "indexed": false,
          "internalType": "uint256",
          "name": "branchId",
          "type": "uint256"
        }
      ],
      "name": "__AssertPreCoverageTrustMe",
      "type": "event"
    },
    {
      "anonymous": false,
      "inputs": [
        {
          "indexed": false,
          "internalType": "string",
          "name": "fileName",
          "type": "string"
        },
        {
          "indexed": false,
          "internalType": "uint256",
          "name": "branchId",
          "type": "uint256"
        },
        {
          "indexed": false,
          "internalType": "uint256",
          "name": "locationIdx",
          "type": "uint256"
        }
      ],
      "name": "__BranchCoverageTrustMe",
      "type": "event"
    },
    {
      "anonymous": false,
      "inputs": [
        {
          "indexed": false,
          "internalType": "string",
          "name": "fileName",
          "type": "string"
        },
        {
          "indexed": false,
          "internalType": "uint256",
          "name": "lineNumber",
          "type": "uint256"
        }
      ],
      "name": "__CoverageTrustMe",
      "type": "event"
    },
    {
      "anonymous": false,
      "inputs": [
        {
          "indexed": false,
          "internalType": "string",
          "name": "fileName",
          "type": "string"
        },
        {
          "indexed": false,
          "internalType": "uint256",
          "name": "fnId",
          "type": "uint256"
        }
      ],
      "name": "__FunctionCoverageTrustMe",
      "type": "event"
    },
    {
      "anonymous": false,
      "inputs": [
        {
          "indexed": false,
          "internalType": "string",
          "name": "fileName",
          "type": "string"
        },
        {
          "indexed": false,
          "internalType": "uint256",
          "name": "statementId",
          "type": "uint256"
        }
      ],
      "name": "__StatementCoverageTrustMe",
      "type": "event"
    },
    {
      "anonymous": false,
      "inputs": [
        {
          "indexed": false,
          "internalType": "address",
          "name": "investor",
          "type": "address"
        },
        {
          "indexed": false,
          "internalType": "string",
          "name": "projectName",
          "type": "string"
        },
        {
          "indexed": false,
          "internalType": "uint256",
          "name": "amount",
          "type": "uint256"
        },
        {
          "indexed": false,
          "internalType": "uint256",
          "name": "stakeBuyed",
          "type": "uint256"
        }
      ],
      "name": "investment",
      "type": "event"
    },
    {
      "anonymous": false,
      "inputs": [
        {
          "indexed": false,
          "internalType": "string",
          "name": "name",
          "type": "string"
        },
        {
          "indexed": false,
          "internalType": "string",
          "name": "description",
          "type": "string"
        },
        {
          "indexed": false,
          "internalType": "uint256",
          "name": "stakeToSell",
          "type": "uint256"
        },
        {
          "indexed": false,
          "internalType": "uint256",
          "name": "projectValuation",
          "type": "uint256"
        },
        {
          "indexed": false,
          "internalType": "uint256",
          "name": "finishCriteria",
          "type": "uint256"
        }
      ],
      "name": "newProject",
      "type": "event"
    },
    {
      "anonymous": false,
      "inputs": [
        {
          "indexed": false,
          "internalType": "string",
          "name": "name",
          "type": "string"
        },
        {
          "indexed": false,
          "internalType": "uint256",
          "name": "balance",
          "type": "uint256"
        }
      ],
      "name": "projectWithdraw",
      "type": "event"
    },
    {
      "constant": false,
      "inputs": [
        {
          "internalType": "string",
          "name": "name",
          "type": "string"
        },
        {
          "internalType": "string",
          "name": "description",
          "type": "string"
        },
        {
          "internalType": "uint256",
          "name": "stakeToSell",
          "type": "uint256"
        },
        {
          "internalType": "uint256",
          "name": "projectValuation",
          "type": "uint256"
        },
        {
          "internalType": "uint256",
          "name": "finishCriteria",
          "type": "uint256"
        },
        {
          "internalType": "string",
          "name": "headerHash",
          "type": "string"
        }
      ],
      "name": "addProject",
      "outputs": [
        {
          "internalType": "string",
          "name": "message",
          "type": "string"
        }
      ],
      "payable": false,
      "stateMutability": "nonpayable",
      "type": "function"
    },
    {
      "constant": false,
      "inputs": [],
      "name": "getProjectsCount",
      "outputs": [
        {
          "internalType": "uint256",
          "name": "",
          "type": "uint256"
        }
      ],
      "payable": false,
      "stateMutability": "nonpayable",
      "type": "function"
    },
    {
      "constant": false,
      "inputs": [],
      "name": "getAddressProjectsIndexes",
      "outputs": [
        {
          "internalType": "uint256[]",
          "name": "",
          "type": "uint256[]"
        }
      ],
      "payable": false,
      "stateMutability": "nonpayable",
      "type": "function"
    },
    {
      "constant": false,
      "inputs": [
        {
          "internalType": "uint256",
          "name": "projectIndex",
          "type": "uint256"
        }
      ],
      "name": "getProject",
      "outputs": [
        {
          "internalType": "string",
          "name": "name",
          "type": "string"
        },
        {
          "internalType": "string",
          "name": "headerHash",
          "type": "string"
        },
        {
          "internalType": "string",
          "name": "description",
          "type": "string"
        },
        {
          "internalType": "uint256",
          "name": "stakeToSell",
          "type": "uint256"
        },
        {
          "internalType": "uint256",
          "name": "availableStake",
          "type": "uint256"
        },
        {
          "internalType": "uint256",
          "name": "projectValuation",
          "type": "uint256"
        },
        {
          "internalType": "uint256",
          "name": "finishCriteria",
          "type": "uint256"
        },
        {
          "internalType": "bool",
          "name": "availableToInvest",
          "type": "bool"
        },
        {
          "internalType": "address",
          "name": "owner",
          "type": "address"
        },
        {
          "internalType": "uint256",
          "name": "projectBalance",
          "type": "uint256"
        }
      ],
      "payable": false,
      "stateMutability": "nonpayable",
      "type": "function"
    },
    {
      "constant": false,
      "inputs": [
        {
          "internalType": "uint256",
          "name": "projectIndex",
          "type": "uint256"
        },
        {
          "internalType": "uint256",
          "name": "projectStakeVal",
          "type": "uint256"
        }
      ],
      "name": "investInProject",
      "outputs": [],
      "payable": true,
      "stateMutability": "payable",
      "type": "function"
    },
    {
      "constant": false,
      "inputs": [
        {
          "internalType": "uint256",
          "name": "projectIndex",
          "type": "uint256"
        }
      ],
      "name": "stopProjectInvestmentRound",
      "outputs": [
        {
          "internalType": "string",
          "name": "message",
          "type": "string"
        },
        {
          "internalType": "bool",
          "name": "success",
          "type": "bool"
        }
      ],
      "payable": false,
      "stateMutability": "nonpayable",
      "type": "function"
    },
    {
      "constant": false,
      "inputs": [
        {
          "internalType": "uint256",
          "name": "projectIndex",
          "type": "uint256"
        }
      ],
      "name": "withdrawProjectBalance",
      "outputs": [],
      "payable": true,
      "stateMutability": "payable",
      "type": "function"
    }
  ],
  "bytecode": "0x608060405234801561001057600080fd5b506142cb806100206000396000f3fe6080604052600436106100705760003560e01c8063d49cb0241161004e578063d49cb024146103a6578063e4a8f18b146103d4578063e6587528146103ff578063f0f3f2c8146104be57610070565b8063336f56dc14610075578063564a120b146100ad578063863e85871461033a575b600080fd5b6100ab6004803603604081101561008b57600080fd5b8101908080359060200190929190803590602001909291905050506106ab565b005b3480156100b957600080fd5b506102bf600480360360c08110156100d057600080fd5b81019080803590602001906401000000008111156100ed57600080fd5b8201836020820111156100ff57600080fd5b8035906020019184600183028401116401000000008311171561012157600080fd5b91908080601f016020809104026020016040519081016040528093929190818152602001838380828437600081840152601f19601f8201169050808301925050505050505091929192908035906020019064010000000081111561018457600080fd5b82018360208201111561019657600080fd5b803590602001918460018302840111640100000000831117156101b857600080fd5b91908080601f016020809104026020016040519081016040528093929190818152602001838380828437600081840152601f19601f8201169050808301925050505050505091929192908035906020019092919080359060200190929190803590602001909291908035906020019064010000000081111561023957600080fd5b82018360208201111561024b57600080fd5b8035906020019184600183028401116401000000008311171561026d57600080fd5b91908080601f016020809104026020016040519081016040528093929190818152602001838380828437600081840152601f19601f820116905080830192505050505050509192919290505050611195565b6040518080602001828103825283818151815260200191508051906020019080838360005b838110156102ff5780820151818401526020810190506102e4565b50505050905090810190601f16801561032c5780820380516001836020036101000a031916815260200191505b509250505060405180910390f35b34801561034657600080fd5b5061034f611807565b6040518080602001828103825283818151815260200191508051906020019060200280838360005b83811015610392578082015181840152602081019050610377565b505050509050019250505060405180910390f35b6103d2600480360360208110156103bc57600080fd5b8101908080359060200190929190505050611997565b005b3480156103e057600080fd5b506103e9612a6c565b6040518082815260200191505060405180910390f35b34801561040b57600080fd5b506104386004803603602081101561042257600080fd5b8101908080359060200190929190505050612b75565b604051808060200183151515158152602001828103825284818151815260200191508051906020019080838360005b83811015610482578082015181840152602081019050610467565b50505050905090810190601f1680156104af5780820380516001836020036101000a031916815260200191505b50935050505060405180910390f35b3480156104ca57600080fd5b506104f7600480360360208110156104e157600080fd5b81019080803590602001909291905050506137a0565b604051808060200180602001806020018b81526020018a8152602001898152602001888152602001871515151581526020018673ffffffffffffffffffffffffffffffffffffffff1673ffffffffffffffffffffffffffffffffffffffff16815260200185815260200184810384528e818151815260200191508051906020019080838360005b8381101561059957808201518184015260208101905061057e565b50505050905090810190601f1680156105c65780820380516001836020036101000a031916815260200191505b5084810383528d818151815260200191508051906020019080838360005b838110156105ff5780820151818401526020810190506105e4565b50505050905090810190601f16801561062c5780820380516001836020036101000a031916815260200191505b5084810382528c818151815260200191508051906020019080838360005b8381101561066557808201518184015260208101905061064a565b50505050905090810190601f1680156106925780820380516001836020036101000a031916815260200191505b509d505050505050505050505050505060405180910390f35b817f3206a78a13389a4d6c2305d5b426062e1074bbaee2171e0a59b08da9fdb359456001604051808060200183815260200182810382526041815260200180614256604191396060019250505060405180910390a17f61240f11a732d6d8dfe1037924ad9dfb51614f0f59e519042c943382ebf12b66601a604051808060200183815260200182810382526041815260200180614256604191396060019250505060405180910390a17ff54d64d1711acb6a72a49b2606486553e8382636b89d495da7a0b46e1ab172956001604051808060200183815260200182810382526041815260200180614256604191396060019250505060405180910390a17f990a0f963bf6420cd945de4c74ecfaca87c32f07d1662ab5b8dc87f1192289766001604051808060200183815260200182810382526041815260200180614256604191396060019250505060405180910390a1610892816000803373ffffffffffffffffffffffffffffffffffffffff1673ffffffffffffffffffffffffffffffffffffffff16815260200190815260200160002080548060200260200160405190810160405280929190818152602001828054801561088857602002820191906000526020600020905b815481526020019060010190808311610874575b5050505050613c8b565b156108e8576040517f08c379a000000000000000000000000000000000000000000000000000000000815260040180806020018281038252603f815260200180614181603f913960400191505060405180910390fd5b7f5a411f60ae9043341be652ead41aecafe9fe154562c4a82ff0c49464e83cd4d86001604051808060200183815260200182810382526041815260200180614256604191396060019250505060405180910390a17f61240f11a732d6d8dfe1037924ad9dfb51614f0f59e519042c943382ebf12b66601e604051808060200183815260200182810382526041815260200180614256604191396060019250505060405180910390a1827f3206a78a13389a4d6c2305d5b426062e1074bbaee2171e0a59b08da9fdb359456003604051808060200183815260200182810382526041815260200180614256604191396060019250505060405180910390a17f61240f11a732d6d8dfe1037924ad9dfb51614f0f59e519042c943382ebf12b66602a604051808060200183815260200182810382526041815260200180614256604191396060019250505060405180910390a17ff54d64d1711acb6a72a49b2606486553e8382636b89d495da7a0b46e1ab172956003604051808060200183815260200182810382526041815260200180614256604191396060019250505060405180910390a17f990a0f963bf6420cd945de4c74ecfaca87c32f07d1662ab5b8dc87f1192289766003604051808060200183815260200182810382526041815260200180614256604191396060019250505060405180910390a160018181548110610aee57fe5b90600052602060002090600a020160070160009054906101000a900460ff16610b62576040517f08c379a00000000000000000000000000000000000000000000000000000000081526004018080602001828103825260248152602001806141c06024913960400191505060405180910390fd5b7f5a411f60ae9043341be652ead41aecafe9fe154562c4a82ff0c49464e83cd4d86003604051808060200183815260200182810382526041815260200180614256604191396060019250505060405180910390a17f61240f11a732d6d8dfe1037924ad9dfb51614f0f59e519042c943382ebf12b66602e604051808060200183815260200182810382526041815260200180614256604191396060019250505060405180910390a17ff54d64d1711acb6a72a49b2606486553e8382636b89d495da7a0b46e1ab172956004604051808060200183815260200182810382526041815260200180614256604191396060019250505060405180910390a17f990a0f963bf6420cd945de4c74ecfaca87c32f07d1662ab5b8dc87f1192289766004604051808060200183815260200182810382526041815260200180614256604191396060019250505060405180910390a13460018281548110610cc057fe5b90600052602060002090600a0201600401541115610d29576040517f08c379a000000000000000000000000000000000000000000000000000000000815260040180806020018281038252602b81526020018061422b602b913960400191505060405180910390fd5b7f5a411f60ae9043341be652ead41aecafe9fe154562c4a82ff0c49464e83cd4d86004604051808060200183815260200182810382526041815260200180614256604191396060019250505060405180910390a17f61240f11a732d6d8dfe1037924ad9dfb51614f0f59e519042c943382ebf12b666032604051808060200183815260200182810382526041815260200180614256604191396060019250505060405180910390a17f3206a78a13389a4d6c2305d5b426062e1074bbaee2171e0a59b08da9fdb35945600b604051808060200183815260200182810382526041815260200180614256604191396060019250505060405180910390a17f61240f11a732d6d8dfe1037924ad9dfb51614f0f59e519042c943382ebf12b666093604051808060200183815260200182810382526041815260200180614256604191396060019250505060405180910390a17f990a0f963bf6420cd945de4c74ecfaca87c32f07d1662ab5b8dc87f1192289766014604051808060200183815260200182810382526041815260200180614256604191396060019250505060405180910390a18260018581548110610edb57fe5b90600052602060002090600a0201600401600082825403925050819055507f61240f11a732d6d8dfe1037924ad9dfb51614f0f59e519042c943382ebf12b666094604051808060200183815260200182810382526041815260200180614256604191396060019250505060405180910390a17f990a0f963bf6420cd945de4c74ecfaca87c32f07d1662ab5b8dc87f1192289766015604051808060200183815260200182810382526041815260200180614256604191396060019250505060405180910390a13460018581548110610faf57fe5b90600052602060002090600a0201600801600082825401925050819055507f61240f11a732d6d8dfe1037924ad9dfb51614f0f59e519042c943382ebf12b666095604051808060200183815260200182810382526041815260200180614256604191396060019250505060405180910390a17f990a0f963bf6420cd945de4c74ecfaca87c32f07d1662ab5b8dc87f1192289766016604051808060200183815260200182810382526041815260200180614256604191396060019250505060405180910390a17f2f0d96ec3f7b225801307bda93e683f05bde0cb351bb828056eaf295d963a69733600186815481106110a457fe5b90600052602060002090600a02016000013486604051808573ffffffffffffffffffffffffffffffffffffffff1673ffffffffffffffffffffffffffffffffffffffff1681526020018060200184815260200183815260200182810382528581815460018160011615610100020316600290048152602001915080546001816001161561010002031660029004801561117e5780601f106111535761010080835404028352916020019161117e565b820191906000526020600020905b81548152906001019060200180831161116157829003601f168201915b50509550505050505060405180910390a150505050565b60607f3206a78a13389a4d6c2305d5b426062e1074bbaee2171e0a59b08da9fdb359456007604051808060200183815260200182810382526041815260200180614256604191396060019250505060405180910390a17f61240f11a732d6d8dfe1037924ad9dfb51614f0f59e519042c943382ebf12b666054604051808060200183815260200182810382526041815260200180614256604191396060019250505060405180910390a17f990a0f963bf6420cd945de4c74ecfaca87c32f07d1662ab5b8dc87f119228976600c604051808060200183815260200182810382526041815260200180614256604191396060019250505060405180910390a16000803373ffffffffffffffffffffffffffffffffffffffff1673ffffffffffffffffffffffffffffffffffffffff16815260200190815260200160002060018054905090806001815401808255809150509060018203906000526020600020016000909192909190915055507f61240f11a732d6d8dfe1037924ad9dfb51614f0f59e519042c943382ebf12b666055604051808060200183815260200182810382526041815260200180614256604191396060019250505060405180910390a17f990a0f963bf6420cd945de4c74ecfaca87c32f07d1662ab5b8dc87f119228976600d604051808060200183815260200182810382526041815260200180614256604191396060019250505060405180910390a160016040518061016001604052808981526020018881526020018481526020018781526020018781526020018681526020018581526020016001151581526020013373ffffffffffffffffffffffffffffffffffffffff16815260200160008152602001600115158152509080600181540180825580915050906001820390600052602060002090600a020160009091929091909150600082015181600001908051906020019061145a929190614034565b506020820151816001019080519060200190611477929190614034565b506040820151816002019080519060200190611494929190614034565b50606082015181600301556080820151816004015560a0820151816005015560c0820151816006015560e08201518160070160006101000a81548160ff0219169083151502179055506101008201518160070160016101000a81548173ffffffffffffffffffffffffffffffffffffffff021916908373ffffffffffffffffffffffffffffffffffffffff16021790555061012082015181600801556101408201518160090160006101000a81548160ff0219169083151502179055505050507f61240f11a732d6d8dfe1037924ad9dfb51614f0f59e519042c943382ebf12b666064604051808060200183815260200182810382526041815260200180614256604191396060019250505060405180910390a17f990a0f963bf6420cd945de4c74ecfaca87c32f07d1662ab5b8dc87f119228976600e604051808060200183815260200182810382526041815260200180614256604191396060019250505060405180910390a17fa8db7167e92a793cb8876c1626b8d403b9e448931cacce2eca9977ff39a150a98787878787604051808060200180602001868152602001858152602001848152602001838103835288818151815260200191508051906020019080838360005b8381101561167857808201518184015260208101905061165d565b50505050905090810190601f1680156116a55780820380516001836020036101000a031916815260200191505b50838103825287818151815260200191508051906020019080838360005b838110156116de5780820151818401526020810190506116c3565b50505050905090810190601f16801561170b5780820380516001836020036101000a031916815260200191505b5097505050505050505060405180910390a17f61240f11a732d6d8dfe1037924ad9dfb51614f0f59e519042c943382ebf12b666065604051808060200183815260200182810382526041815260200180614256604191396060019250505060405180910390a17f990a0f963bf6420cd945de4c74ecfaca87c32f07d1662ab5b8dc87f119228976600f604051808060200183815260200182810382526041815260200180614256604191396060019250505060405180910390a16040518060400160405280601a81526020017f5375636365737366756c6c792041646465642050726f6a65637400000000000081525090509695505050505050565b60607f3206a78a13389a4d6c2305d5b426062e1074bbaee2171e0a59b08da9fdb359456009604051808060200183815260200182810382526041815260200180614256604191396060019250505060405180910390a17f61240f11a732d6d8dfe1037924ad9dfb51614f0f59e519042c943382ebf12b66606f604051808060200183815260200182810382526041815260200180614256604191396060019250505060405180910390a17f990a0f963bf6420cd945de4c74ecfaca87c32f07d1662ab5b8dc87f1192289766011604051808060200183815260200182810382526041815260200180614256604191396060019250505060405180910390a16000803373ffffffffffffffffffffffffffffffffffffffff1673ffffffffffffffffffffffffffffffffffffffff16815260200190815260200160002080548060200260200160405190810160405280929190818152602001828054801561198d57602002820191906000526020600020905b815481526020019060010190808311611979575b5050505050905090565b807f3206a78a13389a4d6c2305d5b426062e1074bbaee2171e0a59b08da9fdb359456004604051808060200183815260200182810382526041815260200180614256604191396060019250505060405180910390a17f61240f11a732d6d8dfe1037924ad9dfb51614f0f59e519042c943382ebf12b666036604051808060200183815260200182810382526041815260200180614256604191396060019250505060405180910390a17ff54d64d1711acb6a72a49b2606486553e8382636b89d495da7a0b46e1ab172956005604051808060200183815260200182810382526041815260200180614256604191396060019250505060405180910390a17f990a0f963bf6420cd945de4c74ecfaca87c32f07d1662ab5b8dc87f1192289766005604051808060200183815260200182810382526041815260200180614256604191396060019250505060405180910390a1600060018281548110611af757fe5b90600052602060002090600a0201600801541415611b60576040517f08c379a00000000000000000000000000000000000000000000000000000000081526004018080602001828103825260228152602001806142096022913960400191505060405180910390fd5b7f5a411f60ae9043341be652ead41aecafe9fe154562c4a82ff0c49464e83cd4d86005604051808060200183815260200182810382526041815260200180614256604191396060019250505060405180910390a17f61240f11a732d6d8dfe1037924ad9dfb51614f0f59e519042c943382ebf12b666037604051808060200183815260200182810382526041815260200180614256604191396060019250505060405180910390a1817f3206a78a13389a4d6c2305d5b426062e1074bbaee2171e0a59b08da9fdb359456002604051808060200183815260200182810382526041815260200180614256604191396060019250505060405180910390a17f61240f11a732d6d8dfe1037924ad9dfb51614f0f59e519042c943382ebf12b666022604051808060200183815260200182810382526041815260200180614256604191396060019250505060405180910390a17ff54d64d1711acb6a72a49b2606486553e8382636b89d495da7a0b46e1ab172956002604051808060200183815260200182810382526041815260200180614256604191396060019250505060405180910390a17f990a0f963bf6420cd945de4c74ecfaca87c32f07d1662ab5b8dc87f1192289766002604051808060200183815260200182810382526041815260200180614256604191396060019250505060405180910390a1606460018281548110611d6857fe5b90600052602060002090600a02016006015460018381548110611d8757fe5b90600052602060002090600a0201600301540281611da157fe5b0460018281548110611daf57fe5b90600052602060002090600a0201600801541015611e18576040517f08c379a000000000000000000000000000000000000000000000000000000000815260040180806020018281038252603381526020018061414e6033913960400191505060405180910390fd5b7f5a411f60ae9043341be652ead41aecafe9fe154562c4a82ff0c49464e83cd4d86002604051808060200183815260200182810382526041815260200180614256604191396060019250505060405180910390a17f61240f11a732d6d8dfe1037924ad9dfb51614f0f59e519042c943382ebf12b666026604051808060200183815260200182810382526041815260200180614256604191396060019250505060405180910390a1827f3206a78a13389a4d6c2305d5b426062e1074bbaee2171e0a59b08da9fdb359456005604051808060200183815260200182810382526041815260200180614256604191396060019250505060405180910390a17f61240f11a732d6d8dfe1037924ad9dfb51614f0f59e519042c943382ebf12b66603b604051808060200183815260200182810382526041815260200180614256604191396060019250505060405180910390a17ff54d64d1711acb6a72a49b2606486553e8382636b89d495da7a0b46e1ab172956006604051808060200183815260200182810382526041815260200180614256604191396060019250505060405180910390a17f990a0f963bf6420cd945de4c74ecfaca87c32f07d1662ab5b8dc87f1192289766006604051808060200183815260200182810382526041815260200180614256604191396060019250505060405180910390a16120a7816000803373ffffffffffffffffffffffffffffffffffffffff1673ffffffffffffffffffffffffffffffffffffffff16815260200190815260200160002080548060200260200160405190810160405280929190818152602001828054801561209d57602002820191906000526020600020905b815481526020019060010190808311612089575b5050505050613c8b565b6120fc576040517f08c379a00000000000000000000000000000000000000000000000000000000081526004018080602001828103825260258152602001806141e46025913960400191505060405180910390fd5b7f5a411f60ae9043341be652ead41aecafe9fe154562c4a82ff0c49464e83cd4d86006604051808060200183815260200182810382526041815260200180614256604191396060019250505060405180910390a17f61240f11a732d6d8dfe1037924ad9dfb51614f0f59e519042c943382ebf12b66603c604051808060200183815260200182810382526041815260200180614256604191396060019250505060405180910390a17ff54d64d1711acb6a72a49b2606486553e8382636b89d495da7a0b46e1ab172956007604051808060200183815260200182810382526041815260200180614256604191396060019250505060405180910390a17f990a0f963bf6420cd945de4c74ecfaca87c32f07d1662ab5b8dc87f1192289766007604051808060200183815260200182810382526041815260200180614256604191396060019250505060405180910390a16001818154811061225957fe5b90600052602060002090600a020160090160009054906101000a900460ff166122ea576040517f08c379a000000000000000000000000000000000000000000000000000000000815260040180806020018281038252601b8152602001807f546869732050726f6a65637420646f6573206e6f74206578697374000000000081525060200191505060405180910390fd5b7f5a411f60ae9043341be652ead41aecafe9fe154562c4a82ff0c49464e83cd4d86007604051808060200183815260200182810382526041815260200180614256604191396060019250505060405180910390a17f61240f11a732d6d8dfe1037924ad9dfb51614f0f59e519042c943382ebf12b66603d604051808060200183815260200182810382526041815260200180614256604191396060019250505060405180910390a17f3206a78a13389a4d6c2305d5b426062e1074bbaee2171e0a59b08da9fdb35945600d604051808060200183815260200182810382526041815260200180614256604191396060019250505060405180910390a17f61240f11a732d6d8dfe1037924ad9dfb51614f0f59e519042c943382ebf12b6660a9604051808060200183815260200182810382526041815260200180614256604191396060019250505060405180910390a17f990a0f963bf6420cd945de4c74ecfaca87c32f07d1662ab5b8dc87f119228976601b604051808060200183815260200182810382526041815260200180614256604191396060019250505060405180910390a16124966140b4565b600185815481106124a357fe5b90600052602060002090600a020160405180610160016040529081600082018054600181600116156101000203166002900480601f0160208091040260200160405190810160405280929190818152602001828054600181600116156101000203166002900480156125565780601f1061252b57610100808354040283529160200191612556565b820191906000526020600020905b81548152906001019060200180831161253957829003601f168201915b50505050508152602001600182018054600181600116156101000203166002900480601f0160208091040260200160405190810160405280929190818152602001828054600181600116156101000203166002900480156125f85780601f106125cd576101008083540402835291602001916125f8565b820191906000526020600020905b8154815290600101906020018083116125db57829003601f168201915b50505050508152602001600282018054600181600116156101000203166002900480601f01602080910402602001604051908101604052809291908181526020018280546001816001161561010002031660029004801561269a5780601f1061266f5761010080835404028352916020019161269a565b820191906000526020600020905b81548152906001019060200180831161267d57829003601f168201915b50505050508152602001600382015481526020016004820154815260200160058201548152602001600682015481526020016007820160009054906101000a900460ff161515151581526020016007820160019054906101000a900473ffffffffffffffffffffffffffffffffffffffff1673ffffffffffffffffffffffffffffffffffffffff1673ffffffffffffffffffffffffffffffffffffffff168152602001600882015481526020016009820160009054906101000a900460ff16151515158152505090507f61240f11a732d6d8dfe1037924ad9dfb51614f0f59e519042c943382ebf12b6660aa604051808060200183815260200182810382526041815260200180614256604191396060019250505060405180910390a17f990a0f963bf6420cd945de4c74ecfaca87c32f07d1662ab5b8dc87f119228976601c604051808060200183815260200182810382526041815260200180614256604191396060019250505060405180910390a180610100015173ffffffffffffffffffffffffffffffffffffffff166108fc8261012001519081150290604051600060405180830381858888f1935050505015801561285b573d6000803e3d6000fd5b507f61240f11a732d6d8dfe1037924ad9dfb51614f0f59e519042c943382ebf12b6660ab604051808060200183815260200182810382526041815260200180614256604191396060019250505060405180910390a17f990a0f963bf6420cd945de4c74ecfaca87c32f07d1662ab5b8dc87f119228976601d604051808060200183815260200182810382526041815260200180614256604191396060019250505060405180910390a16000816101200181815250507f61240f11a732d6d8dfe1037924ad9dfb51614f0f59e519042c943382ebf12b6660ac604051808060200183815260200182810382526041815260200180614256604191396060019250505060405180910390a17f990a0f963bf6420cd945de4c74ecfaca87c32f07d1662ab5b8dc87f119228976601e604051808060200183815260200182810382526041815260200180614256604191396060019250505060405180910390a17f779bb8e27b6203f2cc7bc9ba164ca8802e346d24701c74407945c2baf040f76381600001518261012001516040518080602001838152602001828103825284818151815260200191508051906020019080838360005b83811015612a2a578082015181840152602081019050612a0f565b50505050905090810190601f168015612a575780820380516001836020036101000a031916815260200191505b50935050505060405180910390a15050505050565b60007f3206a78a13389a4d6c2305d5b426062e1074bbaee2171e0a59b08da9fdb359456008604051808060200183815260200182810382526041815260200180614256604191396060019250505060405180910390a17f61240f11a732d6d8dfe1037924ad9dfb51614f0f59e519042c943382ebf12b666069604051808060200183815260200182810382526041815260200180614256604191396060019250505060405180910390a17f990a0f963bf6420cd945de4c74ecfaca87c32f07d1662ab5b8dc87f1192289766010604051808060200183815260200182810382526041815260200180614256604191396060019250505060405180910390a1600180549050905090565b60606000827f3206a78a13389a4d6c2305d5b426062e1074bbaee2171e0a59b08da9fdb359456005604051808060200183815260200182810382526041815260200180614256604191396060019250505060405180910390a17f61240f11a732d6d8dfe1037924ad9dfb51614f0f59e519042c943382ebf12b66603b604051808060200183815260200182810382526041815260200180614256604191396060019250505060405180910390a17ff54d64d1711acb6a72a49b2606486553e8382636b89d495da7a0b46e1ab172956006604051808060200183815260200182810382526041815260200180614256604191396060019250505060405180910390a17f990a0f963bf6420cd945de4c74ecfaca87c32f07d1662ab5b8dc87f1192289766006604051808060200183815260200182810382526041815260200180614256604191396060019250505060405180910390a1612d60816000803373ffffffffffffffffffffffffffffffffffffffff1673ffffffffffffffffffffffffffffffffffffffff168152602001908152602001600020805480602002602001604051908101604052809291908181526020018280548015612d5657602002820191906000526020600020905b815481526020019060010190808311612d42575b5050505050613c8b565b612db5576040517f08c379a00000000000000000000000000000000000000000000000000000000081526004018080602001828103825260258152602001806141e46025913960400191505060405180910390fd5b7f5a411f60ae9043341be652ead41aecafe9fe154562c4a82ff0c49464e83cd4d86006604051808060200183815260200182810382526041815260200180614256604191396060019250505060405180910390a17f61240f11a732d6d8dfe1037924ad9dfb51614f0f59e519042c943382ebf12b66603c604051808060200183815260200182810382526041815260200180614256604191396060019250505060405180910390a17ff54d64d1711acb6a72a49b2606486553e8382636b89d495da7a0b46e1ab172956007604051808060200183815260200182810382526041815260200180614256604191396060019250505060405180910390a17f990a0f963bf6420cd945de4c74ecfaca87c32f07d1662ab5b8dc87f1192289766007604051808060200183815260200182810382526041815260200180614256604191396060019250505060405180910390a160018181548110612f1257fe5b90600052602060002090600a020160090160009054906101000a900460ff16612fa3576040517f08c379a000000000000000000000000000000000000000000000000000000000815260040180806020018281038252601b8152602001807f546869732050726f6a65637420646f6573206e6f74206578697374000000000081525060200191505060405180910390fd5b7f5a411f60ae9043341be652ead41aecafe9fe154562c4a82ff0c49464e83cd4d86007604051808060200183815260200182810382526041815260200180614256604191396060019250505060405180910390a17f61240f11a732d6d8dfe1037924ad9dfb51614f0f59e519042c943382ebf12b66603d604051808060200183815260200182810382526041815260200180614256604191396060019250505060405180910390a1837f3206a78a13389a4d6c2305d5b426062e1074bbaee2171e0a59b08da9fdb359456002604051808060200183815260200182810382526041815260200180614256604191396060019250505060405180910390a17f61240f11a732d6d8dfe1037924ad9dfb51614f0f59e519042c943382ebf12b666022604051808060200183815260200182810382526041815260200180614256604191396060019250505060405180910390a17ff54d64d1711acb6a72a49b2606486553e8382636b89d495da7a0b46e1ab172956002604051808060200183815260200182810382526041815260200180614256604191396060019250505060405180910390a17f990a0f963bf6420cd945de4c74ecfaca87c32f07d1662ab5b8dc87f1192289766002604051808060200183815260200182810382526041815260200180614256604191396060019250505060405180910390a16064600182815481106131ab57fe5b90600052602060002090600a020160060154600183815481106131ca57fe5b90600052602060002090600a02016003015402816131e457fe5b04600182815481106131f257fe5b90600052602060002090600a020160080154101561325b576040517f08c379a000000000000000000000000000000000000000000000000000000000815260040180806020018281038252603381526020018061414e6033913960400191505060405180910390fd5b7f5a411f60ae9043341be652ead41aecafe9fe154562c4a82ff0c49464e83cd4d86002604051808060200183815260200182810382526041815260200180614256604191396060019250505060405180910390a17f61240f11a732d6d8dfe1037924ad9dfb51614f0f59e519042c943382ebf12b666026604051808060200183815260200182810382526041815260200180614256604191396060019250505060405180910390a17f3206a78a13389a4d6c2305d5b426062e1074bbaee2171e0a59b08da9fdb35945600c604051808060200183815260200182810382526041815260200180614256604191396060019250505060405180910390a17f61240f11a732d6d8dfe1037924ad9dfb51614f0f59e519042c943382ebf12b66609e604051808060200183815260200182810382526041815260200180614256604191396060019250505060405180910390a17f990a0f963bf6420cd945de4c74ecfaca87c32f07d1662ab5b8dc87f1192289766017604051808060200183815260200182810382526041815260200180614256604191396060019250505060405180910390a16001858154811061340c57fe5b90600052602060002090600a020160070160009054906101000a900460ff1615613656577f47a0a6ab5145662a5e8381112de7042cd1dda268723d0b3667f6e84e8425316c6009600060405180806020018481526020018381526020018281038252604181526020018061425660419139606001935050505060405180910390a17f61240f11a732d6d8dfe1037924ad9dfb51614f0f59e519042c943382ebf12b66609f604051808060200183815260200182810382526041815260200180614256604191396060019250505060405180910390a17f990a0f963bf6420cd945de4c74ecfaca87c32f07d1662ab5b8dc87f1192289766018604051808060200183815260200182810382526041815260200180614256604191396060019250505060405180910390a160006001868154811061354457fe5b90600052602060002090600a020160070160006101000a81548160ff0219169083151502179055507f61240f11a732d6d8dfe1037924ad9dfb51614f0f59e519042c943382ebf12b6660a0604051808060200183815260200182810382526041815260200180614256604191396060019250505060405180910390a17f990a0f963bf6420cd945de4c74ecfaca87c32f07d1662ab5b8dc87f1192289766019604051808060200183815260200182810382526041815260200180614256604191396060019250505060405180910390a160016040518060400160405280601c81526020017f50726f6a656374207375636365737366756c6c792053746f70706564000000008152509093509350613799565b7f47a0a6ab5145662a5e8381112de7042cd1dda268723d0b3667f6e84e8425316c6009600160405180806020018481526020018381526020018281038252604181526020018061425660419139606001935050505060405180910390a17f61240f11a732d6d8dfe1037924ad9dfb51614f0f59e519042c943382ebf12b6660a2604051808060200183815260200182810382526041815260200180614256604191396060019250505060405180910390a17f990a0f963bf6420cd945de4c74ecfaca87c32f07d1662ab5b8dc87f119228976601a604051808060200183815260200182810382526041815260200180614256604191396060019250505060405180910390a160006040518060400160405280601781526020017f50726f6a65637420616c72656164792053746f7070656400000000000000000081525090935093505b5050915091565b606080606060008060008060008060007f3206a78a13389a4d6c2305d5b426062e1074bbaee2171e0a59b08da9fdb35945600a604051808060200183815260200182810382526041815260200180614256604191396060019250505060405180910390a17f61240f11a732d6d8dfe1037924ad9dfb51614f0f59e519042c943382ebf12b666080604051808060200183815260200182810382526041815260200180614256604191396060019250505060405180910390a17f990a0f963bf6420cd945de4c74ecfaca87c32f07d1662ab5b8dc87f1192289766012604051808060200183815260200182810382526041815260200180614256604191396060019250505060405180910390a16138b46140b4565b60018c815481106138c157fe5b90600052602060002090600a020160405180610160016040529081600082018054600181600116156101000203166002900480601f0160208091040260200160405190810160405280929190818152602001828054600181600116156101000203166002900480156139745780601f1061394957610100808354040283529160200191613974565b820191906000526020600020905b81548152906001019060200180831161395757829003601f168201915b50505050508152602001600182018054600181600116156101000203166002900480601f016020809104026020016040519081016040528092919081815260200182805460018160011615610100020316600290048015613a165780601f106139eb57610100808354040283529160200191613a16565b820191906000526020600020905b8154815290600101906020018083116139f957829003601f168201915b50505050508152602001600282018054600181600116156101000203166002900480601f016020809104026020016040519081016040528092919081815260200182805460018160011615610100020316600290048015613ab85780601f10613a8d57610100808354040283529160200191613ab8565b820191906000526020600020905b815481529060010190602001808311613a9b57829003601f168201915b50505050508152602001600382015481526020016004820154815260200160058201548152602001600682015481526020016007820160009054906101000a900460ff161515151581526020016007820160019054906101000a900473ffffffffffffffffffffffffffffffffffffffff1673ffffffffffffffffffffffffffffffffffffffff1673ffffffffffffffffffffffffffffffffffffffff168152602001600882015481526020016009820160009054906101000a900460ff16151515158152505090507f61240f11a732d6d8dfe1037924ad9dfb51614f0f59e519042c943382ebf12b666081604051808060200183815260200182810382526041815260200180614256604191396060019250505060405180910390a17f990a0f963bf6420cd945de4c74ecfaca87c32f07d1662ab5b8dc87f1192289766013604051808060200183815260200182810382526041815260200180614256604191396060019250505060405180910390a1806000015181604001518260200151836060015184608001518560a001518660c001518760e001518861010001518961012001518999508898508797508191509a509a509a509a509a509a509a509a509a509a50509193959799509193959799565b60007f3206a78a13389a4d6c2305d5b426062e1074bbaee2171e0a59b08da9fdb359456006604051808060200183815260200182810382526041815260200180614256604191396060019250505060405180910390a17f61240f11a732d6d8dfe1037924ad9dfb51614f0f59e519042c943382ebf12b666044604051808060200183815260200182810382526041815260200180614256604191396060019250505060405180910390a17f990a0f963bf6420cd945de4c74ecfaca87c32f07d1662ab5b8dc87f1192289766008604051808060200183815260200182810382526041815260200180614256604191396060019250505060405180910390a160008090505b8251811015613f80577f61240f11a732d6d8dfe1037924ad9dfb51614f0f59e519042c943382ebf12b666045604051808060200183815260200182810382526041815260200180614256604191396060019250505060405180910390a17f990a0f963bf6420cd945de4c74ecfaca87c32f07d1662ab5b8dc87f1192289766009604051808060200183815260200182810382526041815260200180614256604191396060019250505060405180910390a183838281518110613e4d57fe5b60200260200101511415613f16577f990a0f963bf6420cd945de4c74ecfaca87c32f07d1662ab5b8dc87f119228976600a604051808060200183815260200182810382526041815260200180614256604191396060019250505060405180910390a17f47a0a6ab5145662a5e8381112de7042cd1dda268723d0b3667f6e84e8425316c6008600060405180806020018481526020018381526020018281038252604181526020018061425660419139606001935050505060405180910390a1600191505061402e565b7f47a0a6ab5145662a5e8381112de7042cd1dda268723d0b3667f6e84e8425316c6008600160405180806020018481526020018381526020018281038252604181526020018061425660419139606001935050505060405180910390a18080600101915050613d8f565b507f61240f11a732d6d8dfe1037924ad9dfb51614f0f59e519042c943382ebf12b666047604051808060200183815260200182810382526041815260200180614256604191396060019250505060405180910390a17f990a0f963bf6420cd945de4c74ecfaca87c32f07d1662ab5b8dc87f119228976600b604051808060200183815260200182810382526041815260200180614256604191396060019250505060405180910390a1600090505b92915050565b828054600181600116156101000203166002900490600052602060002090601f016020900481019282601f1061407557805160ff19168380011785556140a3565b828001600101855582156140a3579182015b828111156140a2578251825591602001919060010190614087565b5b5090506140b09190614128565b5090565b60405180610160016040528060608152602001606081526020016060815260200160008152602001600081526020016000815260200160008152602001600015158152602001600073ffffffffffffffffffffffffffffffffffffffff168152602001600081526020016000151581525090565b61414a91905b8082111561414657600081600090555060010161412e565b5090565b9056fe5468652070726f6a65637420646f6573206e6f74206163636f6d706c697368207468652066696e69736820637269746572696154686520696e766573746f722063616e2774206265207468652073616d6520706572736f6e2077686f207075626c6973686564207468652070726f6a656374546869732070726f6a6563742069732073746f7070656420627920686973206f776e6572546869732050726f6a65637420646f6573206e6f742062656c6f6e677320746f20796f7521596f752068617665206e6f20666f756e647320696e20746861742070726f6a656374596f752063616e2774206275792061206869676865722076616c7565207468616e20617661696c61626c652f6d6e742f632f55736572732f4f584f46542f446f63756d656e74732f435552534f532f54727573744d652f636f6e7472616374732f54727573744d652e736f6ca265627a7a72315820d120ddb25ce744cb9089880bcb9fe9dfd2e3c6c861c5ecb5066282c7bfad35e864736f6c634300050c0032",
  "source": "pragma solidity ^0.5.0;\r\n\r\ncontract TrustMe {event __CoverageTrustMe(string fileName, uint256 lineNumber);\nevent __FunctionCoverageTrustMe(string fileName, uint256 fnId);\nevent __StatementCoverageTrustMe(string fileName, uint256 statementId);\nevent __BranchCoverageTrustMe(string fileName, uint256 branchId, uint256 locationIdx);\nevent __AssertPreCoverageTrustMe(string fileName, uint256 branchId);\nevent __AssertPostCoverageTrustMe(string fileName, uint256 branchId);\n\r\n  // TrustMe events\r\n  event newProject(string name, string description, uint stakeToSell, uint projectValuation, uint finishCriteria);\r\n  event investment(address investor, string projectName, uint amount, uint stakeBuyed);\r\n  event projectWithdraw(string name, uint balance);\r\n  // PROJECT STRUCTURE MODEL\r\n  struct Project {\r\n    string name;\r\n    string description;\r\n    string headerHash;\r\n    uint stakeToSell;\r\n    uint availableStake;\r\n    uint projectValuation;\r\n    uint finishCriteria;\r\n    bool availableToInvest;\r\n    address payable ownerAddress;\r\n    uint balance;\r\n    bool validProject;\r\n  }\r\n  mapping(address => uint[]) private projects; //projects storage\r\n  Project[] private projectsStorage; //projects order by address\r\n  // ask only for investor\r\n  modifier onlyInvestor(uint projectIndex) {emit __FunctionCoverageTrustMe('/mnt/c/Users/OXOFT/Documents/CURSOS/TrustMe/contracts/TrustMe.sol',1);\n\r\nemit __CoverageTrustMe('/mnt/c/Users/OXOFT/Documents/CURSOS/TrustMe/contracts/TrustMe.sol',26);\n    emit __AssertPreCoverageTrustMe('/mnt/c/Users/OXOFT/Documents/CURSOS/TrustMe/contracts/TrustMe.sol',1);\nemit __StatementCoverageTrustMe('/mnt/c/Users/OXOFT/Documents/CURSOS/TrustMe/contracts/TrustMe.sol',1);\nrequire(\r\n      !contains(projectIndex,projects[msg.sender]),\r\n      \"The investor can't be the same person who published the project\"\r\n    );emit __AssertPostCoverageTrustMe('/mnt/c/Users/OXOFT/Documents/CURSOS/TrustMe/contracts/TrustMe.sol',1);\n\r\nemit __CoverageTrustMe('/mnt/c/Users/OXOFT/Documents/CURSOS/TrustMe/contracts/TrustMe.sol',30);\n    _;\r\n  }\r\n  // ask only for investor\r\n  modifier accomplishFinishCriteria(uint projectIndex) {emit __FunctionCoverageTrustMe('/mnt/c/Users/OXOFT/Documents/CURSOS/TrustMe/contracts/TrustMe.sol',2);\n\r\nemit __CoverageTrustMe('/mnt/c/Users/OXOFT/Documents/CURSOS/TrustMe/contracts/TrustMe.sol',34);\n    emit __AssertPreCoverageTrustMe('/mnt/c/Users/OXOFT/Documents/CURSOS/TrustMe/contracts/TrustMe.sol',2);\nemit __StatementCoverageTrustMe('/mnt/c/Users/OXOFT/Documents/CURSOS/TrustMe/contracts/TrustMe.sol',2);\nrequire(\r\n      projectsStorage[projectIndex].balance >= ((projectsStorage[projectIndex].stakeToSell * projectsStorage[projectIndex].finishCriteria) / 100),\r\n      \"The project does not accomplish the finish criteria\"\r\n    );emit __AssertPostCoverageTrustMe('/mnt/c/Users/OXOFT/Documents/CURSOS/TrustMe/contracts/TrustMe.sol',2);\n\r\nemit __CoverageTrustMe('/mnt/c/Users/OXOFT/Documents/CURSOS/TrustMe/contracts/TrustMe.sol',38);\n    _;\r\n  }\r\n  // ask if the project is available to invest\r\n  modifier availableToBuy(uint projectIndex){emit __FunctionCoverageTrustMe('/mnt/c/Users/OXOFT/Documents/CURSOS/TrustMe/contracts/TrustMe.sol',3);\n\r\nemit __CoverageTrustMe('/mnt/c/Users/OXOFT/Documents/CURSOS/TrustMe/contracts/TrustMe.sol',42);\n    emit __AssertPreCoverageTrustMe('/mnt/c/Users/OXOFT/Documents/CURSOS/TrustMe/contracts/TrustMe.sol',3);\nemit __StatementCoverageTrustMe('/mnt/c/Users/OXOFT/Documents/CURSOS/TrustMe/contracts/TrustMe.sol',3);\nrequire(\r\n      projectsStorage[projectIndex].availableToInvest,\r\n      \"This project is stopped by his owner\"\r\n    );emit __AssertPostCoverageTrustMe('/mnt/c/Users/OXOFT/Documents/CURSOS/TrustMe/contracts/TrustMe.sol',3);\n\r\nemit __CoverageTrustMe('/mnt/c/Users/OXOFT/Documents/CURSOS/TrustMe/contracts/TrustMe.sol',46);\n    emit __AssertPreCoverageTrustMe('/mnt/c/Users/OXOFT/Documents/CURSOS/TrustMe/contracts/TrustMe.sol',4);\nemit __StatementCoverageTrustMe('/mnt/c/Users/OXOFT/Documents/CURSOS/TrustMe/contracts/TrustMe.sol',4);\nrequire(\r\n      projectsStorage[projectIndex].availableStake <= msg.value,\r\n      \"You can't buy a higher value than available\"\r\n    );emit __AssertPostCoverageTrustMe('/mnt/c/Users/OXOFT/Documents/CURSOS/TrustMe/contracts/TrustMe.sol',4);\n\r\nemit __CoverageTrustMe('/mnt/c/Users/OXOFT/Documents/CURSOS/TrustMe/contracts/TrustMe.sol',50);\n    _;\r\n  }\r\n  // ask if the project has founds\r\n  modifier withFounds(uint projectIndex){emit __FunctionCoverageTrustMe('/mnt/c/Users/OXOFT/Documents/CURSOS/TrustMe/contracts/TrustMe.sol',4);\n\r\nemit __CoverageTrustMe('/mnt/c/Users/OXOFT/Documents/CURSOS/TrustMe/contracts/TrustMe.sol',54);\n    emit __AssertPreCoverageTrustMe('/mnt/c/Users/OXOFT/Documents/CURSOS/TrustMe/contracts/TrustMe.sol',5);\nemit __StatementCoverageTrustMe('/mnt/c/Users/OXOFT/Documents/CURSOS/TrustMe/contracts/TrustMe.sol',5);\nrequire(projectsStorage[projectIndex].balance != 0, 'You have no founds in that project');emit __AssertPostCoverageTrustMe('/mnt/c/Users/OXOFT/Documents/CURSOS/TrustMe/contracts/TrustMe.sol',5);\n\r\nemit __CoverageTrustMe('/mnt/c/Users/OXOFT/Documents/CURSOS/TrustMe/contracts/TrustMe.sol',55);\n    _;\r\n  }\r\n  // ask if msg address has project\r\n  modifier entrepeurWithProjects(uint projectIndex){emit __FunctionCoverageTrustMe('/mnt/c/Users/OXOFT/Documents/CURSOS/TrustMe/contracts/TrustMe.sol',5);\n\r\nemit __CoverageTrustMe('/mnt/c/Users/OXOFT/Documents/CURSOS/TrustMe/contracts/TrustMe.sol',59);\n    emit __AssertPreCoverageTrustMe('/mnt/c/Users/OXOFT/Documents/CURSOS/TrustMe/contracts/TrustMe.sol',6);\nemit __StatementCoverageTrustMe('/mnt/c/Users/OXOFT/Documents/CURSOS/TrustMe/contracts/TrustMe.sol',6);\nrequire(contains(projectIndex,projects[msg.sender]),'This Project does not belongs to you!');emit __AssertPostCoverageTrustMe('/mnt/c/Users/OXOFT/Documents/CURSOS/TrustMe/contracts/TrustMe.sol',6);\n\r\nemit __CoverageTrustMe('/mnt/c/Users/OXOFT/Documents/CURSOS/TrustMe/contracts/TrustMe.sol',60);\n    emit __AssertPreCoverageTrustMe('/mnt/c/Users/OXOFT/Documents/CURSOS/TrustMe/contracts/TrustMe.sol',7);\nemit __StatementCoverageTrustMe('/mnt/c/Users/OXOFT/Documents/CURSOS/TrustMe/contracts/TrustMe.sol',7);\nrequire(projectsStorage[projectIndex].validProject,'This Project does not exist');emit __AssertPostCoverageTrustMe('/mnt/c/Users/OXOFT/Documents/CURSOS/TrustMe/contracts/TrustMe.sol',7);\n\r\nemit __CoverageTrustMe('/mnt/c/Users/OXOFT/Documents/CURSOS/TrustMe/contracts/TrustMe.sol',61);\n    _;\r\n  }\r\n  // check if elements exists in array\r\n  function contains(\r\n    uint element,\r\n    uint[] memory arrayToSearch\r\n  ) private      returns(bool success) {emit __FunctionCoverageTrustMe('/mnt/c/Users/OXOFT/Documents/CURSOS/TrustMe/contracts/TrustMe.sol',6);\n\r\nemit __CoverageTrustMe('/mnt/c/Users/OXOFT/Documents/CURSOS/TrustMe/contracts/TrustMe.sol',68);\n    emit __StatementCoverageTrustMe('/mnt/c/Users/OXOFT/Documents/CURSOS/TrustMe/contracts/TrustMe.sol',8);\nfor(uint i = 0; i<arrayToSearch.length; i++) {\r\nemit __CoverageTrustMe('/mnt/c/Users/OXOFT/Documents/CURSOS/TrustMe/contracts/TrustMe.sol',69);\n      emit __StatementCoverageTrustMe('/mnt/c/Users/OXOFT/Documents/CURSOS/TrustMe/contracts/TrustMe.sol',9);\nif(arrayToSearch[i] == element){emit __StatementCoverageTrustMe('/mnt/c/Users/OXOFT/Documents/CURSOS/TrustMe/contracts/TrustMe.sol',10);\nemit __BranchCoverageTrustMe('/mnt/c/Users/OXOFT/Documents/CURSOS/TrustMe/contracts/TrustMe.sol',8,0);return true;}else { emit __BranchCoverageTrustMe('/mnt/c/Users/OXOFT/Documents/CURSOS/TrustMe/contracts/TrustMe.sol',8,1);}\n\r\n    }\r\nemit __CoverageTrustMe('/mnt/c/Users/OXOFT/Documents/CURSOS/TrustMe/contracts/TrustMe.sol',71);\n    emit __StatementCoverageTrustMe('/mnt/c/Users/OXOFT/Documents/CURSOS/TrustMe/contracts/TrustMe.sol',11);\nreturn false;\r\n  }\r\n  // adding a new project\r\n  function addProject (\r\n    string memory name,\r\n    string memory description,\r\n    uint stakeToSell,\r\n    uint projectValuation,\r\n    uint finishCriteria,\r\n    string memory headerHash\r\n  ) public returns(\r\n    string memory message\r\n  ){emit __FunctionCoverageTrustMe('/mnt/c/Users/OXOFT/Documents/CURSOS/TrustMe/contracts/TrustMe.sol',7);\n\r\nemit __CoverageTrustMe('/mnt/c/Users/OXOFT/Documents/CURSOS/TrustMe/contracts/TrustMe.sol',84);\n    emit __StatementCoverageTrustMe('/mnt/c/Users/OXOFT/Documents/CURSOS/TrustMe/contracts/TrustMe.sol',12);\nprojects[msg.sender].push(projectsStorage.length);\r\nemit __CoverageTrustMe('/mnt/c/Users/OXOFT/Documents/CURSOS/TrustMe/contracts/TrustMe.sol',85);\n    emit __StatementCoverageTrustMe('/mnt/c/Users/OXOFT/Documents/CURSOS/TrustMe/contracts/TrustMe.sol',13);\nprojectsStorage.push(\r\n      Project({\r\n        name: name,\r\n        description: description,\r\n        stakeToSell: stakeToSell,\r\n        availableStake: stakeToSell,\r\n        projectValuation: projectValuation,\r\n        finishCriteria: finishCriteria,\r\n        headerHash: headerHash,\r\n        availableToInvest: true,\r\n        ownerAddress: msg.sender,\r\n        balance: 0,\r\n        validProject: true\r\n      })\r\n    );\r\nemit __CoverageTrustMe('/mnt/c/Users/OXOFT/Documents/CURSOS/TrustMe/contracts/TrustMe.sol',100);\n    emit __StatementCoverageTrustMe('/mnt/c/Users/OXOFT/Documents/CURSOS/TrustMe/contracts/TrustMe.sol',14);\nemit newProject(name, description, stakeToSell, projectValuation, finishCriteria);\r\nemit __CoverageTrustMe('/mnt/c/Users/OXOFT/Documents/CURSOS/TrustMe/contracts/TrustMe.sol',101);\n    emit __StatementCoverageTrustMe('/mnt/c/Users/OXOFT/Documents/CURSOS/TrustMe/contracts/TrustMe.sol',15);\nreturn(\"Successfully Added Project\");\r\n  }\r\n  // get all projects count\r\n  function getProjectsCount() public      returns (uint){emit __FunctionCoverageTrustMe('/mnt/c/Users/OXOFT/Documents/CURSOS/TrustMe/contracts/TrustMe.sol',8);\n\r\nemit __CoverageTrustMe('/mnt/c/Users/OXOFT/Documents/CURSOS/TrustMe/contracts/TrustMe.sol',105);\n    emit __StatementCoverageTrustMe('/mnt/c/Users/OXOFT/Documents/CURSOS/TrustMe/contracts/TrustMe.sol',16);\nreturn projectsStorage.length;\r\n  }\r\n  // get all address projects count\r\n  function getAddressProjectsIndexes () public      returns (\r\n    uint[] memory\r\n  ) {emit __FunctionCoverageTrustMe('/mnt/c/Users/OXOFT/Documents/CURSOS/TrustMe/contracts/TrustMe.sol',9);\n\r\nemit __CoverageTrustMe('/mnt/c/Users/OXOFT/Documents/CURSOS/TrustMe/contracts/TrustMe.sol',111);\n    emit __StatementCoverageTrustMe('/mnt/c/Users/OXOFT/Documents/CURSOS/TrustMe/contracts/TrustMe.sol',17);\nreturn projects[msg.sender];\r\n  }\r\n  // get specific project\r\n  function getProject (\r\n    uint projectIndex\r\n  ) public      returns (\r\n    string memory name,\r\n    string memory headerHash,\r\n    string memory description,\r\n    uint stakeToSell,\r\n    uint availableStake,\r\n    uint projectValuation,\r\n    uint finishCriteria,\r\n    bool availableToInvest,\r\n    address owner,\r\n    uint projectBalance\r\n  ) {emit __FunctionCoverageTrustMe('/mnt/c/Users/OXOFT/Documents/CURSOS/TrustMe/contracts/TrustMe.sol',10);\n\r\nemit __CoverageTrustMe('/mnt/c/Users/OXOFT/Documents/CURSOS/TrustMe/contracts/TrustMe.sol',128);\n    emit __StatementCoverageTrustMe('/mnt/c/Users/OXOFT/Documents/CURSOS/TrustMe/contracts/TrustMe.sol',18);\nProject memory projectToReturn = projectsStorage[projectIndex];\r\nemit __CoverageTrustMe('/mnt/c/Users/OXOFT/Documents/CURSOS/TrustMe/contracts/TrustMe.sol',129);\n    emit __StatementCoverageTrustMe('/mnt/c/Users/OXOFT/Documents/CURSOS/TrustMe/contracts/TrustMe.sol',19);\nreturn (\r\n      projectToReturn.name,\r\n      projectToReturn.headerHash,\r\n      projectToReturn.description,\r\n      projectToReturn.stakeToSell,\r\n      projectToReturn.availableStake,\r\n      projectToReturn.projectValuation,\r\n      projectToReturn.finishCriteria,\r\n      projectToReturn.availableToInvest,\r\n      projectToReturn.ownerAddress,\r\n      projectToReturn.balance\r\n    );\r\n  }\r\n  // invest in project\r\n  function investInProject(\r\n    uint projectIndex,\r\n    uint projectStakeVal\r\n  ) public onlyInvestor(projectIndex) availableToBuy(projectIndex) payable {emit __FunctionCoverageTrustMe('/mnt/c/Users/OXOFT/Documents/CURSOS/TrustMe/contracts/TrustMe.sol',11);\n\r\nemit __CoverageTrustMe('/mnt/c/Users/OXOFT/Documents/CURSOS/TrustMe/contracts/TrustMe.sol',147);\n    emit __StatementCoverageTrustMe('/mnt/c/Users/OXOFT/Documents/CURSOS/TrustMe/contracts/TrustMe.sol',20);\nprojectsStorage[projectIndex].availableStake -= projectStakeVal;\r\nemit __CoverageTrustMe('/mnt/c/Users/OXOFT/Documents/CURSOS/TrustMe/contracts/TrustMe.sol',148);\n    emit __StatementCoverageTrustMe('/mnt/c/Users/OXOFT/Documents/CURSOS/TrustMe/contracts/TrustMe.sol',21);\nprojectsStorage[projectIndex].balance += msg.value;\r\nemit __CoverageTrustMe('/mnt/c/Users/OXOFT/Documents/CURSOS/TrustMe/contracts/TrustMe.sol',149);\n    emit __StatementCoverageTrustMe('/mnt/c/Users/OXOFT/Documents/CURSOS/TrustMe/contracts/TrustMe.sol',22);\nemit investment(msg.sender, projectsStorage[projectIndex].name, msg.value, projectStakeVal);\r\n  }\r\n  // stop project investment round\r\n  function stopProjectInvestmentRound(\r\n    uint projectIndex\r\n  ) public entrepeurWithProjects(projectIndex) accomplishFinishCriteria(projectIndex) returns (\r\n    string memory message,\r\n    bool success\r\n  ) {emit __FunctionCoverageTrustMe('/mnt/c/Users/OXOFT/Documents/CURSOS/TrustMe/contracts/TrustMe.sol',12);\n\r\nemit __CoverageTrustMe('/mnt/c/Users/OXOFT/Documents/CURSOS/TrustMe/contracts/TrustMe.sol',158);\n    emit __StatementCoverageTrustMe('/mnt/c/Users/OXOFT/Documents/CURSOS/TrustMe/contracts/TrustMe.sol',23);\nif (projectsStorage[projectIndex].availableToInvest) {emit __BranchCoverageTrustMe('/mnt/c/Users/OXOFT/Documents/CURSOS/TrustMe/contracts/TrustMe.sol',9,0);\r\nemit __CoverageTrustMe('/mnt/c/Users/OXOFT/Documents/CURSOS/TrustMe/contracts/TrustMe.sol',159);\n      emit __StatementCoverageTrustMe('/mnt/c/Users/OXOFT/Documents/CURSOS/TrustMe/contracts/TrustMe.sol',24);\nprojectsStorage[projectIndex].availableToInvest = false;\r\nemit __CoverageTrustMe('/mnt/c/Users/OXOFT/Documents/CURSOS/TrustMe/contracts/TrustMe.sol',160);\n      emit __StatementCoverageTrustMe('/mnt/c/Users/OXOFT/Documents/CURSOS/TrustMe/contracts/TrustMe.sol',25);\nreturn ('Project successfully Stopped', true);\r\n    } else {emit __BranchCoverageTrustMe('/mnt/c/Users/OXOFT/Documents/CURSOS/TrustMe/contracts/TrustMe.sol',9,1);\r\nemit __CoverageTrustMe('/mnt/c/Users/OXOFT/Documents/CURSOS/TrustMe/contracts/TrustMe.sol',162);\n      emit __StatementCoverageTrustMe('/mnt/c/Users/OXOFT/Documents/CURSOS/TrustMe/contracts/TrustMe.sol',26);\nreturn ('Project already Stopped', false);\r\n    }\r\n  }\r\n  // withdraw project balance\r\n  function withdrawProjectBalance(\r\n    uint projectIndex\r\n  ) public withFounds(projectIndex) accomplishFinishCriteria(projectIndex) entrepeurWithProjects(projectIndex) payable{emit __FunctionCoverageTrustMe('/mnt/c/Users/OXOFT/Documents/CURSOS/TrustMe/contracts/TrustMe.sol',13);\n\r\nemit __CoverageTrustMe('/mnt/c/Users/OXOFT/Documents/CURSOS/TrustMe/contracts/TrustMe.sol',169);\n    emit __StatementCoverageTrustMe('/mnt/c/Users/OXOFT/Documents/CURSOS/TrustMe/contracts/TrustMe.sol',27);\nProject memory projectToWithdraw = projectsStorage[projectIndex];\r\nemit __CoverageTrustMe('/mnt/c/Users/OXOFT/Documents/CURSOS/TrustMe/contracts/TrustMe.sol',170);\n    emit __StatementCoverageTrustMe('/mnt/c/Users/OXOFT/Documents/CURSOS/TrustMe/contracts/TrustMe.sol',28);\nprojectToWithdraw.ownerAddress.transfer(projectToWithdraw.balance);\r\nemit __CoverageTrustMe('/mnt/c/Users/OXOFT/Documents/CURSOS/TrustMe/contracts/TrustMe.sol',171);\n    emit __StatementCoverageTrustMe('/mnt/c/Users/OXOFT/Documents/CURSOS/TrustMe/contracts/TrustMe.sol',29);\nprojectToWithdraw.balance = 0;\r\nemit __CoverageTrustMe('/mnt/c/Users/OXOFT/Documents/CURSOS/TrustMe/contracts/TrustMe.sol',172);\n    emit __StatementCoverageTrustMe('/mnt/c/Users/OXOFT/Documents/CURSOS/TrustMe/contracts/TrustMe.sol',30);\nemit projectWithdraw(projectToWithdraw.name, projectToWithdraw.balance);\r\n  }\r\n}",
  "sourcePath": "/mnt/c/Users/OXOFT/Documents/CURSOS/TrustMe/coverageEnv/contracts/TrustMe.sol",
  "compiler": {
    "name": "solc",
    "version": "0.5.12+commit.7709ece9.Emscripten.clang"
  },
  "schemaVersion": "3.0.19",
  "updatedAt": "2019-12-05T00:14:18.934Z",
  "devdoc": {
    "methods": {}
  },
  "userdoc": {
    "methods": {}
  }
}